{
  "contractName": "HRBTokenCrowdsale",
  "abi": [
    {
      "inputs": [
        {
          "internalType": "uint256",
          "name": "_rate",
          "type": "uint256"
        },
        {
          "internalType": "address payable",
          "name": "_wallet",
          "type": "address"
        },
        {
          "internalType": "contract IERC20",
          "name": "_token",
          "type": "address"
        }
      ],
      "stateMutability": "nonpayable",
      "type": "constructor"
    },
    {
      "anonymous": false,
      "inputs": [
        {
          "indexed": true,
          "internalType": "address",
          "name": "purchaser",
          "type": "address"
        },
        {
          "indexed": true,
          "internalType": "address",
          "name": "beneficiary",
          "type": "address"
        },
        {
          "indexed": false,
          "internalType": "uint256",
          "name": "value",
          "type": "uint256"
        },
        {
          "indexed": false,
          "internalType": "uint256",
          "name": "amount",
          "type": "uint256"
        }
      ],
      "name": "TokensPurchased",
      "type": "event"
    },
    {
      "stateMutability": "payable",
      "type": "receive",
      "payable": true
    },
    {
      "inputs": [],
      "name": "getToken",
      "outputs": [
        {
          "internalType": "contract IERC20",
          "name": "",
          "type": "address"
        }
      ],
      "stateMutability": "view",
      "type": "function",
      "constant": true
    },
    {
      "inputs": [],
      "name": "getWallet",
      "outputs": [
        {
          "internalType": "address payable",
          "name": "",
          "type": "address"
        }
      ],
      "stateMutability": "view",
      "type": "function",
      "constant": true
    },
    {
      "inputs": [],
      "name": "getRate",
      "outputs": [
        {
          "internalType": "uint256",
          "name": "",
          "type": "uint256"
        }
      ],
      "stateMutability": "view",
      "type": "function",
      "constant": true
    },
    {
      "inputs": [],
      "name": "getWeiRaised",
      "outputs": [
        {
          "internalType": "uint256",
          "name": "",
          "type": "uint256"
        }
      ],
      "stateMutability": "view",
      "type": "function",
      "constant": true
    },
    {
      "inputs": [
        {
          "internalType": "address",
          "name": "_beneficiary",
          "type": "address"
        }
      ],
      "name": "buyTokens",
      "outputs": [],
      "stateMutability": "payable",
      "type": "function",
      "payable": true
    }
  ],
  "bytecode": "0x60806040523480156200001157600080fd5b5060405162000ed138038062000ed18339818101604052810190620000379190620002f9565b60016000819055506000831162000085576040517f08c379a00000000000000000000000000000000000000000000000000000000081526004016200007c90620003b6565b60405180910390fd5b600073ffffffffffffffffffffffffffffffffffffffff168273ffffffffffffffffffffffffffffffffffffffff1603620000f7576040517f08c379a0000000000000000000000000000000000000000000000000000000008152600401620000ee906200044e565b60405180910390fd5b600073ffffffffffffffffffffffffffffffffffffffff168173ffffffffffffffffffffffffffffffffffffffff160362000169576040517f08c379a00000000000000000000000000000000000000000000000000000000081526004016200016090620004e6565b60405180910390fd5b8260038190555081600260006101000a81548173ffffffffffffffffffffffffffffffffffffffff021916908373ffffffffffffffffffffffffffffffffffffffff16021790555080600160006101000a81548173ffffffffffffffffffffffffffffffffffffffff021916908373ffffffffffffffffffffffffffffffffffffffff16021790555050505062000508565b600080fd5b6000819050919050565b620002158162000200565b81146200022157600080fd5b50565b60008151905062000235816200020a565b92915050565b600073ffffffffffffffffffffffffffffffffffffffff82169050919050565b600062000268826200023b565b9050919050565b6200027a816200025b565b81146200028657600080fd5b50565b6000815190506200029a816200026f565b92915050565b6000620002ad826200023b565b9050919050565b6000620002c182620002a0565b9050919050565b620002d381620002b4565b8114620002df57600080fd5b50565b600081519050620002f381620002c8565b92915050565b600080600060608486031215620003155762000314620001fb565b5b6000620003258682870162000224565b9350506020620003388682870162000289565b92505060406200034b86828701620002e2565b9150509250925092565b600082825260208201905092915050565b7f43726f776473616c653a20726174652069732030000000000000000000000000600082015250565b60006200039e60148362000355565b9150620003ab8262000366565b602082019050919050565b60006020820190508181036000830152620003d1816200038f565b9050919050565b7f43726f776473616c653a2077616c6c657420697320746865207a65726f20616460008201527f6472657373000000000000000000000000000000000000000000000000000000602082015250565b60006200043660258362000355565b91506200044382620003d8565b604082019050919050565b60006020820190508181036000830152620004698162000427565b9050919050565b7f43726f776473616c653a20746f6b656e20697320746865207a65726f2061646460008201527f7265737300000000000000000000000000000000000000000000000000000000602082015250565b6000620004ce60248362000355565b9150620004db8262000470565b604082019050919050565b600060208201905081810360008301526200050181620004bf565b9050919050565b6109b980620005186000396000f3fe60806040526004361061004e5760003560e01c8063132996041461006a57806321df0da71461009557806340582f13146100c0578063679aefce146100eb578063ec8ac4d81461011657610065565b366100655761006361005e610132565b61013a565b005b600080fd5b34801561007657600080fd5b5061007f61025d565b60405161008c919061051d565b60405180910390f35b3480156100a157600080fd5b506100aa610287565b6040516100b79190610597565b60405180910390f35b3480156100cc57600080fd5b506100d56102b1565b6040516100e291906105cb565b60405180910390f35b3480156100f757600080fd5b506101006102bb565b60405161010d91906105cb565b60405180910390f35b610130600480360381019061012b9190610629565b61013a565b005b600033905090565b60026000540361017f576040517f08c379a0000000000000000000000000000000000000000000000000000000008152600401610176906106b3565b60405180910390fd5b6002600081905550600034905061019682826102c5565b60006101a18261037b565b905081600460008282546101b59190610702565b925050819055506101c68382610392565b8273ffffffffffffffffffffffffffffffffffffffff166101e5610132565b73ffffffffffffffffffffffffffffffffffffffff167f6faf93231a456e552dbc9961f58d9713ee4f2e69d15f1975b050ef0911053a7b848460405161022c929190610736565b60405180910390a361023e83836103a0565b6102466103a4565b610250838361040f565b5050600160008190555050565b6000600260009054906101000a900473ffffffffffffffffffffffffffffffffffffffff16905090565b6000600160009054906101000a900473ffffffffffffffffffffffffffffffffffffffff16905090565b6000600454905090565b6000600354905090565b600073ffffffffffffffffffffffffffffffffffffffff168273ffffffffffffffffffffffffffffffffffffffff1603610334576040517f08c379a000000000000000000000000000000000000000000000000000000000815260040161032b906107d1565b60405180910390fd5b60008103610377576040517f08c379a000000000000000000000000000000000000000000000000000000000815260040161036e9061083d565b60405180910390fd5b5050565b60006003548261038b919061085d565b9050919050565b61039c8282610413565b5050565b5050565b600260009054906101000a900473ffffffffffffffffffffffffffffffffffffffff1673ffffffffffffffffffffffffffffffffffffffff166108fc349081150290604051600060405180830381858888f1935050505015801561040c573d6000803e3d6000fd5b50565b5050565b600160009054906101000a900473ffffffffffffffffffffffffffffffffffffffff1673ffffffffffffffffffffffffffffffffffffffff166323b872dd600260009054906101000a900473ffffffffffffffffffffffffffffffffffffffff1684846040518463ffffffff1660e01b8152600401610494939291906108e7565b6020604051808303816000875af11580156104b3573d6000803e3d6000fd5b505050506040513d601f19601f820116820180604052508101906104d79190610956565b505050565b600073ffffffffffffffffffffffffffffffffffffffff82169050919050565b6000610507826104dc565b9050919050565b610517816104fc565b82525050565b6000602082019050610532600083018461050e565b92915050565b6000819050919050565b600061055d610558610553846104dc565b610538565b6104dc565b9050919050565b600061056f82610542565b9050919050565b600061058182610564565b9050919050565b61059181610576565b82525050565b60006020820190506105ac6000830184610588565b92915050565b6000819050919050565b6105c5816105b2565b82525050565b60006020820190506105e060008301846105bc565b92915050565b600080fd5b60006105f6826104dc565b9050919050565b610606816105eb565b811461061157600080fd5b50565b600081359050610623816105fd565b92915050565b60006020828403121561063f5761063e6105e6565b5b600061064d84828501610614565b91505092915050565b600082825260208201905092915050565b7f5265656e7472616e637947756172643a207265656e7472616e742063616c6c00600082015250565b600061069d601f83610656565b91506106a882610667565b602082019050919050565b600060208201905081810360008301526106cc81610690565b9050919050565b7f4e487b7100000000000000000000000000000000000000000000000000000000600052601160045260246000fd5b600061070d826105b2565b9150610718836105b2565b92508282019050808211156107305761072f6106d3565b5b92915050565b600060408201905061074b60008301856105bc565b61075860208301846105bc565b9392505050565b7f43726f776473616c653a2062656e656669636961727920697320746865207a6560008201527f726f206164647265737300000000000000000000000000000000000000000000602082015250565b60006107bb602a83610656565b91506107c68261075f565b604082019050919050565b600060208201905081810360008301526107ea816107ae565b9050919050565b7f43726f776473616c653a20776569416d6f756e74206973203000000000000000600082015250565b6000610827601983610656565b9150610832826107f1565b602082019050919050565b600060208201905081810360008301526108568161081a565b9050919050565b6000610868826105b2565b9150610873836105b2565b9250817fffffffffffffffffffffffffffffffffffffffffffffffffffffffffffffffff04831182151516156108ac576108ab6106d3565b5b828202905092915050565b60006108c282610564565b9050919050565b6108d2816108b7565b82525050565b6108e1816105eb565b82525050565b60006060820190506108fc60008301866108c9565b61090960208301856108d8565b61091660408301846105bc565b949350505050565b60008115159050919050565b6109338161091e565b811461093e57600080fd5b50565b6000815190506109508161092a565b92915050565b60006020828403121561096c5761096b6105e6565b5b600061097a84828501610941565b9150509291505056fea2646970667358221220216fafcb2e887e22050cf27cddca8276ec61ec9bd73565d6c75ef444b8813d6664736f6c63430008100033",
  "immutableReferences": {},
  "source": "//SPDX-License-Identifier: MIT\n\npragma solidity ^0.8.0;\n\nimport \"@openzeppelin/contracts/utils/Context.sol\";\nimport \"@openzeppelin/contracts/token/ERC20/IERC20.sol\";\nimport \"@openzeppelin/contracts/security/ReentrancyGuard.sol\";\n\n/**\n * @title HRBTokenCrowdsale\n * @dev Crowdsale is a base contract for managing a token crowdsale,\n * allowing investors to purchase tokens with ether. This contract implements\n * such functionality in its most fundamental form and can be extended to provide additional\n * functionality and/or custom behavior.\n * The external interface represents the basic interface for purchasing tokens, and conforms\n * the base architecture for crowdsales. It is *not* intended to be modified / overridden.\n * The internal interface conforms the extensible and modifiable surface of crowdsales. Override\n * the methods to add functionality. Consider using 'super' where appropriate to concatenate\n * behavior.\n *\n * This contract is based on the OpenZeppelin 2.0 Crowdsale smart contract.\n */\ncontract HRBTokenCrowdsale is Context, ReentrancyGuard {\n    // The token being sold\n    IERC20 private token;\n\n    // Address where funds are collected\n    address payable private wallet;\n\n    // How many token units a buyer gets per wei.\n    // The rate is the conversion between wei and the smallest and indivisible token unit.\n    // So, if you are using a rate of 1 with a ERC20 token with 3 decimals called TOK\n    // 1 wei will give you 1 unit, or 0.001 TOK.\n    uint256 private rate;\n\n    // Amount of wei raised\n    uint256 private weiRaised;\n\n    /**\n     * Event for token purchase logging\n     * @param purchaser who paid for the tokens\n     * @param beneficiary who got the tokens\n     * @param value weis paid for purchase\n     * @param amount amount of tokens purchased\n     */\n    event TokensPurchased(address indexed purchaser, address indexed beneficiary, uint256 value, uint256 amount);\n\n    /**\n     * @param _rate Number of token units a buyer gets per wei\n     * @dev The rate is the conversion between wei and the smallest and indivisible\n     * token unit. So, if you are using a rate of 1 with a ERC20 token\n     * with 3 decimals called TOK, 1 wei will give you 1 unit, or 0.001 TOK.\n     * @param _wallet Address where collected funds will be forwarded to\n     * @param _token Address of the token being sold\n     */\n    constructor (uint256 _rate, address payable _wallet, IERC20 _token) {\n        require(_rate > 0, \"Crowdsale: rate is 0\");\n        require(_wallet != address(0), \"Crowdsale: wallet is the zero address\");\n        require(address(_token) != address(0), \"Crowdsale: token is the zero address\");\n\n        rate = _rate;\n        wallet = _wallet;\n        token = _token;\n    }\n\n    /**\n     * @dev fallback function ***DO NOT OVERRIDE***\n     * Note that other contracts will transfer funds with a base gas stipend\n     * of 2300, which is not enough to call buyTokens. Consider calling\n     * buyTokens directly when purchasing tokens from a contract.\n     */\n    receive () external payable {\n        buyTokens(_msgSender());\n    }\n\n    /**\n     * @return the token being sold.\n     */\n    function getToken() public view returns (IERC20) {\n        return token;\n    }\n\n    /**\n     * @return the address where funds are collected.\n     */\n    function getWallet() public view returns (address payable) {\n        return wallet;\n    }\n\n    /**\n     * @return the number of token units a buyer gets per wei.\n     */\n    function getRate() public view returns (uint256) {\n        return rate;\n    }\n\n    /**\n     * @return the amount of wei raised.\n     */\n    function getWeiRaised() public view returns (uint256) {\n        return weiRaised;\n    }\n\n    /**\n     * @dev low level token purchase ***DO NOT OVERRIDE***\n     * This function has a non-reentrancy guard, so it shouldn't be called by\n     * another `nonReentrant` function.\n     * @param _beneficiary Recipient of the token purchase\n     */\n    function buyTokens(address _beneficiary) public nonReentrant payable {\n        uint256 weiAmount = msg.value;\n        _preValidatePurchase(_beneficiary, weiAmount);\n\n        // calculate token amount to be created\n        uint256 tokens = _getTokenAmount(weiAmount);\n\n        // update state\n        weiRaised += weiAmount;\n\n        _processPurchase(_beneficiary, tokens);\n        emit TokensPurchased(_msgSender(), _beneficiary, weiAmount, tokens);\n\n        _updatePurchasingState(_beneficiary, weiAmount);\n\n        _forwardFunds();\n        _postValidatePurchase(_beneficiary, weiAmount);\n    }\n\n    /**\n     * @dev Validation of an incoming purchase. Use require statements to revert state when conditions are not met.\n     * Use `super` in contracts that inherit from Crowdsale to extend their validations.\n     * Example from CappedCrowdsale.sol's _preValidatePurchase method:\n     *     super._preValidatePurchase(beneficiary, weiAmount);\n     *     require(weiRaised().add(weiAmount) <= cap);\n     * @param _beneficiary Address performing the token purchase\n     * @param _weiAmount Value in wei involved in the purchase\n     */\n    function _preValidatePurchase(address _beneficiary, uint256 _weiAmount) internal view {\n        require(_beneficiary != address(0), \"Crowdsale: beneficiary is the zero address\");\n        require(_weiAmount != 0, \"Crowdsale: weiAmount is 0\");\n        this; // silence state mutability warning without generating bytecode - see https://github.com/ethereum/solidity/issues/2691\n    }\n\n    /**\n     * @dev Validation of an executed purchase. Observe state and use revert statements to undo rollback when valid\n     * conditions are not met.\n     * @param _beneficiary Address performing the token purchase\n     * @param _weiAmount Value in wei involved in the purchase\n     */\n    function _postValidatePurchase(address _beneficiary, uint256 _weiAmount) internal view {\n        // solhint-disable-previous-line no-empty-blocks\n    }\n\n    /**\n     * @dev Source of tokens. Override this method to modify the way in which the crowdsale ultimately gets and sends\n     * its tokens.\n     * @param _beneficiary Address performing the token purchase\n     * @param _tokenAmount Number of tokens to be emitted\n     */\n    function _deliverTokens(address _beneficiary, uint256 _tokenAmount) internal {\n        token.transferFrom(wallet, _beneficiary, _tokenAmount);\n    }\n\n    /**\n     * @dev Executed when a purchase has been validated and is ready to be executed. Doesn't necessarily emit/send\n     * tokens.\n     * @param _beneficiary Address receiving the tokens\n     * @param _tokenAmount Number of tokens to be purchased\n     */\n    function _processPurchase(address _beneficiary, uint256 _tokenAmount) internal {\n        _deliverTokens(_beneficiary, _tokenAmount);\n    }\n\n    /**\n     * @dev Override for extensions that require an internal state to check for validity (current user contributions,\n     * etc.)\n     * @param _beneficiary Address receiving the tokens\n     * @param _weiAmount Value in wei involved in the purchase\n     */\n    function _updatePurchasingState(address _beneficiary, uint256 _weiAmount) internal {\n        // solhint-disable-previous-line no-empty-blocks\n    }\n\n    /**\n     * @dev Override to extend the way in which ether is converted to tokens.\n     * @param _weiAmount Value in wei to be converted into tokens\n     * @return Number of tokens that can be purchased with the specified _weiAmount\n     */\n    function _getTokenAmount(uint256 _weiAmount) internal view returns (uint256) {\n        return _weiAmount * rate;\n    }\n\n    /**\n     * @dev Determines how ETH is stored/forwarded on purchases.\n     */\n    function _forwardFunds() internal {\n        wallet.transfer(msg.value);\n    }\n}",
  "sourcePath": "/usr/hu/contracts/HRBTokenCrowdsale.sol",
  "compiler": {
    "name": "solc",
    "version": "0.8.16+commit.07a7930e.Emscripten.clang"
  },
  "schemaVersion": "3.4.9",
  "updatedAt": "2022-09-11T08:41:51.888Z",
  "networkType": "ethereum",
  "devdoc": {
    "details": "Crowdsale is a base contract for managing a token crowdsale, allowing investors to purchase tokens with ether. This contract implements such functionality in its most fundamental form and can be extended to provide additional functionality and/or custom behavior. The external interface represents the basic interface for purchasing tokens, and conforms the base architecture for crowdsales. It is *not* intended to be modified / overridden. The internal interface conforms the extensible and modifiable surface of crowdsales. Override the methods to add functionality. Consider using 'super' where appropriate to concatenate behavior. This contract is based on the OpenZeppelin 2.0 Crowdsale smart contract.",
    "events": {
      "TokensPurchased(address,address,uint256,uint256)": {
        "params": {
          "amount": "amount of tokens purchased",
          "beneficiary": "who got the tokens",
          "purchaser": "who paid for the tokens",
          "value": "weis paid for purchase"
        }
      }
    },
    "kind": "dev",
    "methods": {
      "buyTokens(address)": {
        "details": "low level token purchase ***DO NOT OVERRIDE*** This function has a non-reentrancy guard, so it shouldn't be called by another `nonReentrant` function.",
        "params": {
          "_beneficiary": "Recipient of the token purchase"
        }
      },
      "constructor": {
        "details": "The rate is the conversion between wei and the smallest and indivisible token unit. So, if you are using a rate of 1 with a ERC20 token with 3 decimals called TOK, 1 wei will give you 1 unit, or 0.001 TOK.",
        "params": {
          "_rate": "Number of token units a buyer gets per wei",
          "_token": "Address of the token being sold",
          "_wallet": "Address where collected funds will be forwarded to"
        }
      },
      "getRate()": {
        "returns": {
          "_0": "the number of token units a buyer gets per wei."
        }
      },
      "getToken()": {
        "returns": {
          "_0": "the token being sold."
        }
      },
      "getWallet()": {
        "returns": {
          "_0": "the address where funds are collected."
        }
      },
      "getWeiRaised()": {
        "returns": {
          "_0": "the amount of wei raised."
        }
      }
    },
    "title": "HRBTokenCrowdsale",
    "version": 1
  },
  "userdoc": {
    "events": {
      "TokensPurchased(address,address,uint256,uint256)": {
        "notice": "Event for token purchase logging"
      }
    },
    "kind": "user",
    "methods": {},
    "version": 1
  }
}