{
  "contractName": "HurbBikeShareManager",
  "abi": [
    {
      "inputs": [
        {
          "internalType": "contract IERC20",
          "name": "_hurbToken",
          "type": "address"
        },
        {
          "internalType": "address",
          "name": "_hurbWallet",
          "type": "address"
        }
      ],
      "stateMutability": "nonpayable",
      "type": "constructor"
    },
    {
      "anonymous": false,
      "inputs": [
        {
          "indexed": true,
          "internalType": "address",
          "name": "rent",
          "type": "address"
        },
        {
          "indexed": true,
          "internalType": "address",
          "name": "renter",
          "type": "address"
        },
        {
          "indexed": false,
          "internalType": "uint256",
          "name": "agreementEndingTime",
          "type": "uint256"
        },
        {
          "indexed": false,
          "internalType": "uint256",
          "name": "endingTime",
          "type": "uint256"
        }
      ],
      "name": "BikeRentalCompleted",
      "type": "event"
    },
    {
      "anonymous": false,
      "inputs": [
        {
          "indexed": true,
          "internalType": "address",
          "name": "rent",
          "type": "address"
        },
        {
          "indexed": true,
          "internalType": "address",
          "name": "renter",
          "type": "address"
        },
        {
          "indexed": false,
          "internalType": "uint256",
          "name": "startingTime",
          "type": "uint256"
        },
        {
          "indexed": false,
          "internalType": "uint256",
          "name": "endingTime",
          "type": "uint256"
        }
      ],
      "name": "BikeRentalStarted",
      "type": "event"
    },
    {
      "anonymous": false,
      "inputs": [
        {
          "indexed": true,
          "internalType": "address",
          "name": "rent",
          "type": "address"
        },
        {
          "indexed": true,
          "internalType": "address",
          "name": "renter",
          "type": "address"
        },
        {
          "indexed": false,
          "internalType": "uint256",
          "name": "lossOfRentTime",
          "type": "uint256"
        }
      ],
      "name": "LossOfRent",
      "type": "event"
    },
    {
      "anonymous": false,
      "inputs": [
        {
          "indexed": true,
          "internalType": "address",
          "name": "previousOwner",
          "type": "address"
        },
        {
          "indexed": true,
          "internalType": "address",
          "name": "newOwner",
          "type": "address"
        }
      ],
      "name": "OwnershipTransferred",
      "type": "event"
    },
    {
      "inputs": [],
      "name": "owner",
      "outputs": [
        {
          "internalType": "address",
          "name": "",
          "type": "address"
        }
      ],
      "stateMutability": "view",
      "type": "function",
      "constant": true
    },
    {
      "inputs": [],
      "name": "getHurbBikeRental",
      "outputs": [
        {
          "internalType": "address",
          "name": "",
          "type": "address"
        }
      ],
      "stateMutability": "view",
      "type": "function",
      "constant": true
    },
    {
      "inputs": [],
      "name": "getAvailableHurbBikes",
      "outputs": [
        {
          "internalType": "uint256",
          "name": "",
          "type": "uint256"
        }
      ],
      "stateMutability": "view",
      "type": "function",
      "constant": true
    },
    {
      "inputs": [
        {
          "internalType": "uint256",
          "name": "_availableHurbBikes",
          "type": "uint256"
        }
      ],
      "name": "setAvailableHurbBikes",
      "outputs": [],
      "stateMutability": "nonpayable",
      "type": "function"
    },
    {
      "inputs": [],
      "name": "getTokensPerHour",
      "outputs": [
        {
          "internalType": "uint256",
          "name": "",
          "type": "uint256"
        }
      ],
      "stateMutability": "view",
      "type": "function",
      "constant": true
    },
    {
      "inputs": [
        {
          "internalType": "uint256",
          "name": "_tokensPerHour",
          "type": "uint256"
        }
      ],
      "name": "setTokensPerHour",
      "outputs": [],
      "stateMutability": "nonpayable",
      "type": "function"
    },
    {
      "inputs": [
        {
          "internalType": "uint256",
          "name": "_rentHours",
          "type": "uint256"
        }
      ],
      "name": "rentBike",
      "outputs": [],
      "stateMutability": "payable",
      "type": "function",
      "payable": true
    },
    {
      "inputs": [],
      "name": "returnBike",
      "outputs": [],
      "stateMutability": "nonpayable",
      "type": "function"
    },
    {
      "inputs": [],
      "name": "registerLossOfRent",
      "outputs": [],
      "stateMutability": "nonpayable",
      "type": "function"
    },
    {
      "inputs": [],
      "name": "renounceOwnership",
      "outputs": [],
      "stateMutability": "view",
      "type": "function",
      "constant": true
    },
    {
      "inputs": [
        {
          "internalType": "address",
          "name": "",
          "type": "address"
        }
      ],
      "name": "transferOwnership",
      "outputs": [],
      "stateMutability": "view",
      "type": "function",
      "constant": true
    }
  ],
  "bytecode": "0x60806040523480156200001157600080fd5b5060405162002c3e38038062002c3e83398181016040528101906200003791906200025c565b620000576200004b620000e160201b60201c565b620000e960201b60201c565b81600360006101000a81548173ffffffffffffffffffffffffffffffffffffffff021916908373ffffffffffffffffffffffffffffffffffffffff16021790555080600460006101000a81548173ffffffffffffffffffffffffffffffffffffffff021916908373ffffffffffffffffffffffffffffffffffffffff1602179055505050620002a3565b600033905090565b60008060009054906101000a900473ffffffffffffffffffffffffffffffffffffffff169050816000806101000a81548173ffffffffffffffffffffffffffffffffffffffff021916908373ffffffffffffffffffffffffffffffffffffffff1602179055508173ffffffffffffffffffffffffffffffffffffffff168173ffffffffffffffffffffffffffffffffffffffff167f8be0079c531659141344cd1fd0a4f28419497f9722a3daafe3b4186f6b6457e060405160405180910390a35050565b600080fd5b600073ffffffffffffffffffffffffffffffffffffffff82169050919050565b6000620001df82620001b2565b9050919050565b6000620001f382620001d2565b9050919050565b6200020581620001e6565b81146200021157600080fd5b50565b6000815190506200022581620001fa565b92915050565b6200023681620001d2565b81146200024257600080fd5b50565b60008151905062000256816200022b565b92915050565b60008060408385031215620002765762000275620001ad565b5b6000620002868582860162000214565b9250506020620002998582860162000245565b9150509250929050565b61298b80620002b36000396000f3fe608060405260043610620000aa5760003560e01c8063715018a6116200006d578063715018a6146200016f5780637ad8f22414620001895780638da5cb5b14620001a95780638eb2386414620001d9578063e8f8e54d1462000209578063f2fde38b146200023957620000aa565b80632ff5fc5a14620000af57806355df1ba414620000dd5780635d3ce59114620000f757806360a6673c14620001275780637053b0091462000141575b600080fd5b348015620000bc57600080fd5b50620000db6004803603810190620000d591906200156d565b62000267565b005b348015620000ea57600080fd5b50620000f56200027b565b005b3480156200010457600080fd5b506200010f620006c5565b6040516200011e9190620015b0565b60405180910390f35b3480156200013457600080fd5b506200013f620006cf565b005b3480156200014e57600080fd5b506200016d60048036038101906200016791906200156d565b62000da2565b005b3480156200017c57600080fd5b506200018762000db6565b005b620001a76004803603810190620001a191906200156d565b62000dfd565b005b348015620001b657600080fd5b50620001c1620013b1565b604051620001d0919062001612565b60405180910390f35b348015620001e657600080fd5b50620001f1620013da565b60405162000200919062001612565b60405180910390f35b3480156200021657600080fd5b506200022162001441565b604051620002309190620015b0565b60405180910390f35b3480156200024657600080fd5b506200026560048036038101906200025f919062001660565b6200144b565b005b6200027162001492565b8060058190555050565b600073ffffffffffffffffffffffffffffffffffffffff16600160003373ffffffffffffffffffffffffffffffffffffffff1673ffffffffffffffffffffffffffffffffffffffff16815260200190815260200160002060009054906101000a900473ffffffffffffffffffffffffffffffffffffffff1673ffffffffffffffffffffffffffffffffffffffff1614158015620004fa5750600060038111156200032a576200032962001692565b5b60ff16600160003373ffffffffffffffffffffffffffffffffffffffff1673ffffffffffffffffffffffffffffffffffffffff16815260200190815260200160002060009054906101000a900473ffffffffffffffffffffffffffffffffffffffff1673ffffffffffffffffffffffffffffffffffffffff16634e69d5606040518163ffffffff1660e01b8152600401602060405180830381865afa158015620003d8573d6000803e3d6000fd5b505050506040513d601f19601f82011682018060405250810190620003fe9190620016ff565b60ff161480620004f957506001600381111562000420576200041f62001692565b5b60ff16600160003373ffffffffffffffffffffffffffffffffffffffff1673ffffffffffffffffffffffffffffffffffffffff16815260200190815260200160002060009054906101000a900473ffffffffffffffffffffffffffffffffffffffff1673ffffffffffffffffffffffffffffffffffffffff16634e69d5606040518163ffffffff1660e01b8152600401602060405180830381865afa158015620004ce573d6000803e3d6000fd5b505050506040513d601f19601f82011682018060405250810190620004f49190620016ff565b60ff16145b5b6200053c576040517f08c379a00000000000000000000000000000000000000000000000000000000081526004016200053390620017de565b60405180910390fd5b600160003373ffffffffffffffffffffffffffffffffffffffff1673ffffffffffffffffffffffffffffffffffffffff16815260200190815260200160002060009054906101000a900473ffffffffffffffffffffffffffffffffffffffff1673ffffffffffffffffffffffffffffffffffffffff166355df1ba46040518163ffffffff1660e01b8152600401600060405180830381600087803b158015620005e457600080fd5b505af1158015620005f9573d6000803e3d6000fd5b505050503373ffffffffffffffffffffffffffffffffffffffff16600160003373ffffffffffffffffffffffffffffffffffffffff1673ffffffffffffffffffffffffffffffffffffffff16815260200190815260200160002060009054906101000a900473ffffffffffffffffffffffffffffffffffffffff1673ffffffffffffffffffffffffffffffffffffffff167f86bd08b7d497dd37253f3c3a53226b4048f77636eb1b788b8c8e9b74a26cc73b42604051620006bb9190620015b0565b60405180910390a3565b6000600254905090565b600073ffffffffffffffffffffffffffffffffffffffff16600160003373ffffffffffffffffffffffffffffffffffffffff1673ffffffffffffffffffffffffffffffffffffffff16815260200190815260200160002060009054906101000a900473ffffffffffffffffffffffffffffffffffffffff1673ffffffffffffffffffffffffffffffffffffffff16141580156200094e5750600060038111156200077e576200077d62001692565b5b60ff16600160003373ffffffffffffffffffffffffffffffffffffffff1673ffffffffffffffffffffffffffffffffffffffff16815260200190815260200160002060009054906101000a900473ffffffffffffffffffffffffffffffffffffffff1673ffffffffffffffffffffffffffffffffffffffff16634e69d5606040518163ffffffff1660e01b8152600401602060405180830381865afa1580156200082c573d6000803e3d6000fd5b505050506040513d601f19601f82011682018060405250810190620008529190620016ff565b60ff1614806200094d57506001600381111562000874576200087362001692565b5b60ff16600160003373ffffffffffffffffffffffffffffffffffffffff1673ffffffffffffffffffffffffffffffffffffffff16815260200190815260200160002060009054906101000a900473ffffffffffffffffffffffffffffffffffffffff1673ffffffffffffffffffffffffffffffffffffffff16634e69d5606040518163ffffffff1660e01b8152600401602060405180830381865afa15801562000922573d6000803e3d6000fd5b505050506040513d601f19601f82011682018060405250810190620009489190620016ff565b60ff16145b5b62000990576040517f08c379a00000000000000000000000000000000000000000000000000000000081526004016200098790620017de565b60405180910390fd5b600160003373ffffffffffffffffffffffffffffffffffffffff1673ffffffffffffffffffffffffffffffffffffffff16815260200190815260200160002060009054906101000a900473ffffffffffffffffffffffffffffffffffffffff1673ffffffffffffffffffffffffffffffffffffffff16635392d8076040518163ffffffff1660e01b8152600401600060405180830381600087803b15801562000a3857600080fd5b505af115801562000a4d573d6000803e3d6000fd5b505050506000600160003373ffffffffffffffffffffffffffffffffffffffff1673ffffffffffffffffffffffffffffffffffffffff16815260200190815260200160002060009054906101000a900473ffffffffffffffffffffffffffffffffffffffff1673ffffffffffffffffffffffffffffffffffffffff16633d074aeb6040518163ffffffff1660e01b8152600401602060405180830381865afa15801562000afe573d6000803e3d6000fd5b505050506040513d601f19601f8201168201806040525081019062000b24919062001817565b905042811062000cd757600360009054906101000a900473ffffffffffffffffffffffffffffffffffffffff1673ffffffffffffffffffffffffffffffffffffffff166323b872dd600460009054906101000a900473ffffffffffffffffffffffffffffffffffffffff16336003600160003373ffffffffffffffffffffffffffffffffffffffff1673ffffffffffffffffffffffffffffffffffffffff16815260200190815260200160002060009054906101000a900473ffffffffffffffffffffffffffffffffffffffff1673ffffffffffffffffffffffffffffffffffffffff1663729d85526040518163ffffffff1660e01b8152600401602060405180830381865afa15801562000c3d573d6000803e3d6000fd5b505050506040513d601f19601f8201168201806040525081019062000c63919062001817565b62000c6f919062001878565b6040518463ffffffff1660e01b815260040162000c8f93929190620018d9565b6020604051808303816000875af115801562000caf573d6000803e3d6000fd5b505050506040513d601f19601f8201168201806040525081019062000cd5919062001953565b505b3373ffffffffffffffffffffffffffffffffffffffff16600160003373ffffffffffffffffffffffffffffffffffffffff1673ffffffffffffffffffffffffffffffffffffffff16815260200190815260200160002060009054906101000a900473ffffffffffffffffffffffffffffffffffffffff1673ffffffffffffffffffffffffffffffffffffffff167f68d2d968b5381baf57dd745159b75e7bb27b300db5fcef3eaabb6b24fd3e99b6834260405162000d9792919062001985565b60405180910390a350565b62000dac62001492565b8060028190555050565b62000dc062001492565b6040517f08c379a000000000000000000000000000000000000000000000000000000000815260040162000df49062001a28565b60405180910390fd5b60006002541162000e45576040517f08c379a000000000000000000000000000000000000000000000000000000000815260040162000e3c9062001ae6565b60405180910390fd5b600073ffffffffffffffffffffffffffffffffffffffff16600160003373ffffffffffffffffffffffffffffffffffffffff1673ffffffffffffffffffffffffffffffffffffffff16815260200190815260200160002060009054906101000a900473ffffffffffffffffffffffffffffffffffffffff1673ffffffffffffffffffffffffffffffffffffffff16148062000fca575060038081111562000ef15762000ef062001692565b5b60ff16600160003373ffffffffffffffffffffffffffffffffffffffff1673ffffffffffffffffffffffffffffffffffffffff16815260200190815260200160002060009054906101000a900473ffffffffffffffffffffffffffffffffffffffff1673ffffffffffffffffffffffffffffffffffffffff16634e69d5606040518163ffffffff1660e01b8152600401602060405180830381865afa15801562000f9f573d6000803e3d6000fd5b505050506040513d601f19601f8201168201806040525081019062000fc59190620016ff565b60ff16145b80620010c157506002600381111562000fe85762000fe762001692565b5b60ff16600160003373ffffffffffffffffffffffffffffffffffffffff1673ffffffffffffffffffffffffffffffffffffffff16815260200190815260200160002060009054906101000a900473ffffffffffffffffffffffffffffffffffffffff1673ffffffffffffffffffffffffffffffffffffffff16634e69d5606040518163ffffffff1660e01b8152600401602060405180830381865afa15801562001096573d6000803e3d6000fd5b505050506040513d601f19601f82011682018060405250810190620010bc9190620016ff565b60ff16145b62001103576040517f08c379a0000000000000000000000000000000000000000000000000000000008152600401620010fa9062001ba4565b60405180910390fd5b6000610e108262001115919062001878565b4262001122919062001bc6565b905060008260055462001136919062001878565b905033828260405162001149906200151f565b620011579392919062001c01565b604051809103906000f08015801562001174573d6000803e3d6000fd5b50600160003373ffffffffffffffffffffffffffffffffffffffff1673ffffffffffffffffffffffffffffffffffffffff16815260200190815260200160002060006101000a81548173ffffffffffffffffffffffffffffffffffffffff021916908373ffffffffffffffffffffffffffffffffffffffff16021790555060026000815480929190620012079062001c3e565b9190505550600360009054906101000a900473ffffffffffffffffffffffffffffffffffffffff1673ffffffffffffffffffffffffffffffffffffffff166323b872dd33600460009054906101000a900473ffffffffffffffffffffffffffffffffffffffff166004856200127d919062001878565b6040518463ffffffff1660e01b81526004016200129d93929190620018d9565b6020604051808303816000875af1158015620012bd573d6000803e3d6000fd5b505050506040513d601f19601f82011682018060405250810190620012e3919062001953565b503373ffffffffffffffffffffffffffffffffffffffff16600160003373ffffffffffffffffffffffffffffffffffffffff1673ffffffffffffffffffffffffffffffffffffffff16815260200190815260200160002060009054906101000a900473ffffffffffffffffffffffffffffffffffffffff1673ffffffffffffffffffffffffffffffffffffffff167fbd0277af4cb5c27b2b76de0390400fa1fd49a1c18e361159d3dc24c3a3dc9a024285604051620013a492919062001985565b60405180910390a3505050565b60008060009054906101000a900473ffffffffffffffffffffffffffffffffffffffff16905090565b6000600160003373ffffffffffffffffffffffffffffffffffffffff1673ffffffffffffffffffffffffffffffffffffffff16815260200190815260200160002060009054906101000a900473ffffffffffffffffffffffffffffffffffffffff16905090565b6000600554905090565b6200145562001492565b6040517f08c379a0000000000000000000000000000000000000000000000000000000008152600401620014899062001ce2565b60405180910390fd5b6200149c62001517565b73ffffffffffffffffffffffffffffffffffffffff16620014bc620013b1565b73ffffffffffffffffffffffffffffffffffffffff161462001515576040517f08c379a00000000000000000000000000000000000000000000000000000000081526004016200150c9062001d54565b60405180910390fd5b565b600033905090565b610bdf8062001d7783390190565b600080fd5b6000819050919050565b620015478162001532565b81146200155357600080fd5b50565b60008135905062001567816200153c565b92915050565b6000602082840312156200158657620015856200152d565b5b6000620015968482850162001556565b91505092915050565b620015aa8162001532565b82525050565b6000602082019050620015c760008301846200159f565b92915050565b600073ffffffffffffffffffffffffffffffffffffffff82169050919050565b6000620015fa82620015cd565b9050919050565b6200160c81620015ed565b82525050565b600060208201905062001629600083018462001601565b92915050565b6200163a81620015ed565b81146200164657600080fd5b50565b6000813590506200165a816200162f565b92915050565b6000602082840312156200167957620016786200152d565b5b6000620016898482850162001649565b91505092915050565b7f4e487b7100000000000000000000000000000000000000000000000000000000600052602160045260246000fd5b600060ff82169050919050565b620016d981620016c1565b8114620016e557600080fd5b50565b600081519050620016f981620016ce565b92915050565b6000602082840312156200171857620017176200152d565b5b60006200172884828501620016e8565b91505092915050565b600082825260208201905092915050565b7f4875726242696b6553686172654d616e616765723a205468657265206973206e60008201527f6f2072656e74206173736f6369617465642077697468207468652063616c6c6560208201527f72277320616464726573732e0000000000000000000000000000000000000000604082015250565b6000620017c6604c8362001731565b9150620017d38262001742565b606082019050919050565b60006020820190508181036000830152620017f981620017b7565b9050919050565b60008151905062001811816200153c565b92915050565b60006020828403121562001830576200182f6200152d565b5b6000620018408482850162001800565b91505092915050565b7f4e487b7100000000000000000000000000000000000000000000000000000000600052601160045260246000fd5b6000620018858262001532565b9150620018928362001532565b9250817fffffffffffffffffffffffffffffffffffffffffffffffffffffffffffffffff0483118215151615620018ce57620018cd62001849565b5b828202905092915050565b6000606082019050620018f0600083018662001601565b620018ff602083018562001601565b6200190e60408301846200159f565b949350505050565b60008115159050919050565b6200192d8162001916565b81146200193957600080fd5b50565b6000815190506200194d8162001922565b92915050565b6000602082840312156200196c576200196b6200152d565b5b60006200197c848285016200193c565b91505092915050565b60006040820190506200199c60008301856200159f565b620019ab60208301846200159f565b9392505050565b7f4875726242696b6553686172654d616e616765723a2043616e6e6f742072656e60008201527f6f756e6365206f776e6572736869702e00000000000000000000000000000000602082015250565b600062001a1060308362001731565b915062001a1d82620019b2565b604082019050919050565b6000602082019050818103600083015262001a438162001a01565b9050919050565b7f4875726242696b6553686172654d616e616765723a205468657265206973206e60008201527f6f20617661696c61626c6520487572622062696b657320746f2062652072656e60208201527f7465642e00000000000000000000000000000000000000000000000000000000604082015250565b600062001ace60448362001731565b915062001adb8262001a4a565b606082019050919050565b6000602082019050818103600083015262001b018162001abf565b9050919050565b7f4875726242696b6553686172654d616e616765723a205468657265206973206160008201527f6e206f6e676f696e672072656e7420616c7265616479206173736f636961746560208201527f642077697468207468652063616c6c6572277320616464726573732e00000000604082015250565b600062001b8c605c8362001731565b915062001b998262001b08565b606082019050919050565b6000602082019050818103600083015262001bbf8162001b7d565b9050919050565b600062001bd38262001532565b915062001be08362001532565b925082820190508082111562001bfb5762001bfa62001849565b5b92915050565b600060608201905062001c18600083018662001601565b62001c2760208301856200159f565b62001c3660408301846200159f565b949350505050565b600062001c4b8262001532565b91506000820362001c615762001c6062001849565b5b600182039050919050565b7f4875726242696b6553686172654d616e616765723a2043616e6e6f742074726160008201527f6e73666572206f776e6572736869702e00000000000000000000000000000000602082015250565b600062001cca60308362001731565b915062001cd78262001c6c565b604082019050919050565b6000602082019050818103600083015262001cfd8162001cbb565b9050919050565b7f4f776e61626c653a2063616c6c6572206973206e6f7420746865206f776e6572600082015250565b600062001d3c60208362001731565b915062001d498262001d04565b602082019050919050565b6000602082019050818103600083015262001d6f8162001d2d565b905091905056fe60806040523480156200001157600080fd5b5060405162000bdf38038062000bdf833981810160405281019062000037919062000255565b620000576200004b620000e460201b60201c565b620000ec60201b60201c565b82600160006101000a81548173ffffffffffffffffffffffffffffffffffffffff021916908373ffffffffffffffffffffffffffffffffffffffff1602179055506000600160146101000a81548160ff02191690836003811115620000c157620000c0620002b1565b5b0217905550426002819055508160048190555080600581905550505050620002e0565b600033905090565b60008060009054906101000a900473ffffffffffffffffffffffffffffffffffffffff169050816000806101000a81548173ffffffffffffffffffffffffffffffffffffffff021916908373ffffffffffffffffffffffffffffffffffffffff1602179055508173ffffffffffffffffffffffffffffffffffffffff168173ffffffffffffffffffffffffffffffffffffffff167f8be0079c531659141344cd1fd0a4f28419497f9722a3daafe3b4186f6b6457e060405160405180910390a35050565b600080fd5b600073ffffffffffffffffffffffffffffffffffffffff82169050919050565b6000620001e282620001b5565b9050919050565b620001f481620001d5565b81146200020057600080fd5b50565b6000815190506200021481620001e9565b92915050565b6000819050919050565b6200022f816200021a565b81146200023b57600080fd5b50565b6000815190506200024f8162000224565b92915050565b600080600060608486031215620002715762000270620001b0565b5b6000620002818682870162000203565b935050602062000294868287016200023e565b9250506040620002a7868287016200023e565b9150509250925092565b7f4e487b7100000000000000000000000000000000000000000000000000000000600052602160045260246000fd5b6108ef80620002f06000396000f3fe608060405234801561001057600080fd5b50600436106100a95760003560e01c8063715018a611610071578063715018a61461011c578063729d8552146101265780637f6ae770146101445780638da5cb5b14610162578063c1da7e9b14610180578063f2fde38b1461019e576100a9565b80630dc0c971146100ae5780633d074aeb146100cc5780634e69d560146100ea5780635392d8071461010857806355df1ba414610112575b600080fd5b6100b66101ba565b6040516100c3919061054b565b60405180910390f35b6100d46101c4565b6040516100e1919061054b565b60405180910390f35b6100f26101ce565b6040516100ff9190610582565b60405180910390f35b61011061025b565b005b61011a61030d565b005b6101246103bf565b005b61012e610402565b60405161013b919061054b565b60405180910390f35b61014c61040c565b60405161015991906105de565b60405180910390f35b61016a610436565b60405161017791906105de565b60405180910390f35b61018861045f565b604051610195919061054b565b60405180910390f35b6101b860048036038101906101b3919061062a565b610469565b005b6000600254905090565b6000600454905090565b60008060038111156101e3576101e2610657565b5b600160149054906101000a900460ff16600381111561020557610204610657565b5b148015610213575060045442115b15610233576001600381111561022c5761022b610657565b5b9050610258565b600160149054906101000a900460ff16600381111561025557610254610657565b5b90505b90565b6000600381111561026f5761026e610657565b5b600160149054906101000a900460ff16600381111561029157610290610657565b5b146102d1576040517f08c379a00000000000000000000000000000000000000000000000000000000081526004016102c890610709565b60405180910390fd5b6102d96104ac565b6003600160146101000a81548160ff021916908360038111156102ff576102fe610657565b5b021790555042600381905550565b6000600381111561032157610320610657565b5b600160149054906101000a900460ff16600381111561034357610342610657565b5b14610383576040517f08c379a000000000000000000000000000000000000000000000000000000000815260040161037a90610709565b60405180910390fd5b61038b6104ac565b6002600160146101000a81548160ff021916908360038111156103b1576103b0610657565b5b021790555042600381905550565b6103c76104ac565b6040517f08c379a00000000000000000000000000000000000000000000000000000000081526004016103f99061079b565b60405180910390fd5b6000600554905090565b6000600160009054906101000a900473ffffffffffffffffffffffffffffffffffffffff16905090565b60008060009054906101000a900473ffffffffffffffffffffffffffffffffffffffff16905090565b6000600354905090565b6104716104ac565b6040517f08c379a00000000000000000000000000000000000000000000000000000000081526004016104a39061082d565b60405180910390fd5b6104b461052a565b73ffffffffffffffffffffffffffffffffffffffff166104d2610436565b73ffffffffffffffffffffffffffffffffffffffff1614610528576040517f08c379a000000000000000000000000000000000000000000000000000000000815260040161051f90610899565b60405180910390fd5b565b600033905090565b6000819050919050565b61054581610532565b82525050565b6000602082019050610560600083018461053c565b92915050565b600060ff82169050919050565b61057c81610566565b82525050565b60006020820190506105976000830184610573565b92915050565b600073ffffffffffffffffffffffffffffffffffffffff82169050919050565b60006105c88261059d565b9050919050565b6105d8816105bd565b82525050565b60006020820190506105f360008301846105cf565b92915050565b600080fd5b610607816105bd565b811461061257600080fd5b50565b600081359050610624816105fe565b92915050565b6000602082840312156106405761063f6105f9565b5b600061064e84828501610615565b91505092915050565b7f4e487b7100000000000000000000000000000000000000000000000000000000600052602160045260246000fd5b600082825260208201905092915050565b7f4875726242696b6552656e743a205468652072656e74206973206e6f7420696e60008201527f2070726f67726573732e00000000000000000000000000000000000000000000602082015250565b60006106f3602a83610686565b91506106fe82610697565b604082019050919050565b60006020820190508181036000830152610722816106e6565b9050919050565b7f4875726242696b6552656e743a2043616e6e6f742072656e6f756e6365206f7760008201527f6e6572736869702e000000000000000000000000000000000000000000000000602082015250565b6000610785602883610686565b915061079082610729565b604082019050919050565b600060208201905081810360008301526107b481610778565b9050919050565b7f4875726242696b6552656e743a2043616e6e6f74207472616e73666572206f7760008201527f6e6572736869702e000000000000000000000000000000000000000000000000602082015250565b6000610817602883610686565b9150610822826107bb565b604082019050919050565b600060208201905081810360008301526108468161080a565b9050919050565b7f4f776e61626c653a2063616c6c6572206973206e6f7420746865206f776e6572600082015250565b6000610883602083610686565b915061088e8261084d565b602082019050919050565b600060208201905081810360008301526108b281610876565b905091905056fea2646970667358221220eee13cade11df2610f2c285265f418079ee7ff4e9df1708745d507a12db9fd6a64736f6c63430008100033a2646970667358221220d6b7e5c6dbf00f2575478e5eae4da2871a249c262d5dd2a76d5a160a4e47b34f64736f6c63430008100033",
  "immutableReferences": {},
  "source": "//SPDX-License-Identifier: MIT\n\npragma solidity ^0.8.0;\n\nimport \"@openzeppelin/contracts/access/Ownable.sol\";\nimport \"@openzeppelin/contracts/token/ERC20/IERC20.sol\";\nimport \"./HurbBikeRent.sol\";\n\ncontract HurbBikeShareManager is Ownable {\n    mapping(address => HurbBikeRent) private hurbBikeRentals;\n    uint private availableHurbBikes;\n\n    IERC20 private hurbToken;\n    address private hurbWallet;\n    uint private tokensPerHour;\n\n    event BikeRentalStarted(address indexed rent, address indexed renter, uint startingTime, uint endingTime);\n    event BikeRentalCompleted(address indexed rent, address indexed renter, uint agreementEndingTime, uint endingTime);\n    event LossOfRent(address indexed rent, address indexed renter, uint lossOfRentTime);\n\n    modifier available() {\n        require(availableHurbBikes > 0, \"HurbBikeShareManager: There is no available Hurb bikes to be rented.\");\n        _;\n    }\n\n    modifier allowed() {\n        // The call for getStatus() is repeated in the condition below to make use of the short-circuiting.\n        require(address(hurbBikeRentals[msg.sender]) == address(0) || hurbBikeRentals[msg.sender].getStatus() == uint8(HurbBikeRent.Status.COMPLETED) || hurbBikeRentals[msg.sender].getStatus() == uint8(HurbBikeRent.Status.LOSS_OF_RENT), \"HurbBikeShareManager: There is an ongoing rent already associated with the caller's address.\");\n        _;\n    }\n\n    modifier inProgress() {\n        // The call for getStatus() is repeated in the condition below to make use of the short-circuiting.\n        require(address(hurbBikeRentals[msg.sender]) != address(0) && (hurbBikeRentals[msg.sender].getStatus() == uint8(HurbBikeRent.Status.IN_PROGRESS) || hurbBikeRentals[msg.sender].getStatus() == uint8(HurbBikeRent.Status.DEFAULTED)), \"HurbBikeShareManager: There is no rent associated with the caller's address.\");\n        _;\n    }\n\n    constructor(IERC20 _hurbToken, address _hurbWallet) {\n        hurbToken = _hurbToken;\n        hurbWallet = _hurbWallet;\n    }\n\n    function getHurbBikeRental() public view returns(address) {\n        return address(hurbBikeRentals[msg.sender]);\n    }\n\n    function getAvailableHurbBikes() public view returns(uint) {\n        return availableHurbBikes;\n    }\n\n    function setAvailableHurbBikes(uint _availableHurbBikes) external onlyOwner {\n        availableHurbBikes = _availableHurbBikes;\n    }\n\n    function getTokensPerHour() external view returns(uint) {\n        return tokensPerHour;\n    }\n\n    function setTokensPerHour(uint _tokensPerHour) external onlyOwner {\n        tokensPerHour = _tokensPerHour;\n    }\n\n    function rentBike(uint _rentHours) external payable available allowed {\n        uint endingTime = block.timestamp + (_rentHours * 1 hours);\n        uint rentValue = tokensPerHour * _rentHours;\n\n        hurbBikeRentals[msg.sender] = new HurbBikeRent(msg.sender, endingTime, rentValue);\n        availableHurbBikes--;\n\n        hurbToken.transferFrom(msg.sender, hurbWallet, rentValue * 4);\n\n        emit BikeRentalStarted(address(hurbBikeRentals[msg.sender]), msg.sender, block.timestamp, endingTime);\n    }\n\n    function returnBike() external inProgress {\n        hurbBikeRentals[msg.sender].returnBikeRent();\n\n        uint agreementEndingTime = hurbBikeRentals[msg.sender].getAgreementEndingTime();\n\n        if (agreementEndingTime >= block.timestamp) {\n            hurbToken.transferFrom(hurbWallet, msg.sender, hurbBikeRentals[msg.sender].getRentValue() * 3);\n        }\n\n        emit BikeRentalCompleted(address(hurbBikeRentals[msg.sender]), msg.sender, agreementEndingTime, block.timestamp);\n    }\n\n    function registerLossOfRent() external inProgress {\n        hurbBikeRentals[msg.sender].registerLossOfRent();\n\n        emit LossOfRent(address(hurbBikeRentals[msg.sender]), msg.sender, block.timestamp);\n    }\n\n    function renounceOwnership() public view override onlyOwner {\n        revert(\"HurbBikeShareManager: Cannot renounce ownership.\");\n    }\n\n    function transferOwnership(address) public view override onlyOwner {\n        revert(\"HurbBikeShareManager: Cannot transfer ownership.\");\n    }\n}\n",
  "sourcePath": "/usr/hu/contracts/HurbBikeShareManager.sol",
  "compiler": {
    "name": "solc",
    "version": "0.8.16+commit.07a7930e.Emscripten.clang"
  },
  "schemaVersion": "3.4.9",
  "updatedAt": "2022-09-11T08:41:53.822Z",
  "networkType": "ethereum",
  "devdoc": {
    "kind": "dev",
    "methods": {
      "owner()": {
        "details": "Returns the address of the current owner."
      },
      "renounceOwnership()": {
        "details": "Leaves the contract without owner. It will not be possible to call `onlyOwner` functions anymore. Can only be called by the current owner. NOTE: Renouncing ownership will leave the contract without an owner, thereby removing any functionality that is only available to the owner."
      }
    },
    "version": 1
  },
  "userdoc": {
    "kind": "user",
    "methods": {},
    "version": 1
  }
}