{
  "contractName": "HurbBikeShareManager",
  "abi": [
    {
      "inputs": [
        {
          "internalType": "contract IERC20",
          "name": "_hurbToken",
          "type": "address"
        },
        {
          "internalType": "address",
          "name": "_hurbWallet",
          "type": "address"
        }
      ],
      "stateMutability": "nonpayable",
      "type": "constructor"
    },
    {
      "anonymous": false,
      "inputs": [
        {
          "indexed": true,
          "internalType": "address",
          "name": "rent",
          "type": "address"
        },
        {
          "indexed": true,
          "internalType": "address",
          "name": "renter",
          "type": "address"
        },
        {
          "indexed": false,
          "internalType": "uint256",
          "name": "agreementEndingTime",
          "type": "uint256"
        },
        {
          "indexed": false,
          "internalType": "uint256",
          "name": "endingTime",
          "type": "uint256"
        }
      ],
      "name": "BikeRentalCompleted",
      "type": "event"
    },
    {
      "anonymous": false,
      "inputs": [
        {
          "indexed": true,
          "internalType": "address",
          "name": "rent",
          "type": "address"
        },
        {
          "indexed": true,
          "internalType": "address",
          "name": "renter",
          "type": "address"
        },
        {
          "indexed": false,
          "internalType": "uint256",
          "name": "startingTime",
          "type": "uint256"
        },
        {
          "indexed": false,
          "internalType": "uint256",
          "name": "endingTime",
          "type": "uint256"
        }
      ],
      "name": "BikeRentalStarted",
      "type": "event"
    },
    {
      "anonymous": false,
      "inputs": [
        {
          "indexed": true,
          "internalType": "address",
          "name": "rent",
          "type": "address"
        },
        {
          "indexed": true,
          "internalType": "address",
          "name": "renter",
          "type": "address"
        },
        {
          "indexed": false,
          "internalType": "uint256",
          "name": "lossOfRentTime",
          "type": "uint256"
        }
      ],
      "name": "LossOfRent",
      "type": "event"
    },
    {
      "anonymous": false,
      "inputs": [
        {
          "indexed": true,
          "internalType": "address",
          "name": "previousOwner",
          "type": "address"
        },
        {
          "indexed": true,
          "internalType": "address",
          "name": "newOwner",
          "type": "address"
        }
      ],
      "name": "OwnershipTransferred",
      "type": "event"
    },
    {
      "inputs": [],
      "name": "owner",
      "outputs": [
        {
          "internalType": "address",
          "name": "",
          "type": "address"
        }
      ],
      "stateMutability": "view",
      "type": "function"
    },
    {
      "inputs": [],
      "name": "getHurbBikeRental",
      "outputs": [
        {
          "internalType": "address",
          "name": "",
          "type": "address"
        }
      ],
      "stateMutability": "view",
      "type": "function"
    },
    {
      "inputs": [],
      "name": "getAvailableHurbBikes",
      "outputs": [
        {
          "internalType": "uint256",
          "name": "",
          "type": "uint256"
        }
      ],
      "stateMutability": "view",
      "type": "function"
    },
    {
      "inputs": [
        {
          "internalType": "uint256",
          "name": "_availableHurbBikes",
          "type": "uint256"
        }
      ],
      "name": "setAvailableHurbBikes",
      "outputs": [],
      "stateMutability": "nonpayable",
      "type": "function"
    },
    {
      "inputs": [],
      "name": "getTokensPerHour",
      "outputs": [
        {
          "internalType": "uint256",
          "name": "",
          "type": "uint256"
        }
      ],
      "stateMutability": "view",
      "type": "function"
    },
    {
      "inputs": [
        {
          "internalType": "uint256",
          "name": "_tokensPerHour",
          "type": "uint256"
        }
      ],
      "name": "setTokensPerHour",
      "outputs": [],
      "stateMutability": "nonpayable",
      "type": "function"
    },
    {
      "inputs": [
        {
          "internalType": "uint256",
          "name": "_rentHours",
          "type": "uint256"
        }
      ],
      "name": "rentBike",
      "outputs": [],
      "stateMutability": "payable",
      "type": "function"
    },
    {
      "inputs": [],
      "name": "returnBike",
      "outputs": [],
      "stateMutability": "nonpayable",
      "type": "function"
    },
    {
      "inputs": [],
      "name": "registerLossOfRent",
      "outputs": [],
      "stateMutability": "nonpayable",
      "type": "function"
    },
    {
      "inputs": [],
      "name": "renounceOwnership",
      "outputs": [],
      "stateMutability": "view",
      "type": "function"
    },
    {
      "inputs": [
        {
          "internalType": "address",
          "name": "",
          "type": "address"
        }
      ],
      "name": "transferOwnership",
      "outputs": [],
      "stateMutability": "view",
      "type": "function"
    }
  ],
  "bytecode": "0x60806040523480156200001157600080fd5b5060405162002e4e38038062002e4e83398181016040528101906200003791906200025c565b620000576200004b620000e160201b60201c565b620000e960201b60201c565b81600460006101000a81548173ffffffffffffffffffffffffffffffffffffffff021916908373ffffffffffffffffffffffffffffffffffffffff16021790555080600560006101000a81548173ffffffffffffffffffffffffffffffffffffffff021916908373ffffffffffffffffffffffffffffffffffffffff1602179055505050620002a3565b600033905090565b60008060009054906101000a900473ffffffffffffffffffffffffffffffffffffffff169050816000806101000a81548173ffffffffffffffffffffffffffffffffffffffff021916908373ffffffffffffffffffffffffffffffffffffffff1602179055508173ffffffffffffffffffffffffffffffffffffffff168173ffffffffffffffffffffffffffffffffffffffff167f8be0079c531659141344cd1fd0a4f28419497f9722a3daafe3b4186f6b6457e060405160405180910390a35050565b600080fd5b600073ffffffffffffffffffffffffffffffffffffffff82169050919050565b6000620001df82620001b2565b9050919050565b6000620001f382620001d2565b9050919050565b6200020581620001e6565b81146200021157600080fd5b50565b6000815190506200022581620001fa565b92915050565b6200023681620001d2565b81146200024257600080fd5b50565b60008151905062000256816200022b565b92915050565b60008060408385031215620002765762000275620001ad565b5b6000620002868582860162000214565b9250506020620002998582860162000245565b9150509250929050565b612b9b80620002b36000396000f3fe608060405260043610620000aa5760003560e01c8063715018a6116200006d578063715018a6146200016f5780637ad8f22414620001895780638da5cb5b14620001a95780638eb2386414620001d9578063e8f8e54d1462000209578063f2fde38b146200023957620000aa565b80632ff5fc5a14620000af57806355df1ba414620000dd5780635d3ce59114620000f757806360a6673c14620001275780637053b0091462000141575b600080fd5b348015620000bc57600080fd5b50620000db6004803603810190620000d5919062001784565b62000267565b005b348015620000ea57600080fd5b50620000f56200027b565b005b3480156200010457600080fd5b506200010f62000787565b6040516200011e9190620017c7565b60405180910390f35b3480156200013457600080fd5b506200013f62000791565b005b3480156200014e57600080fd5b506200016d600480360381019062000167919062001784565b62000eec565b005b3480156200017c57600080fd5b506200018762000f00565b005b620001a76004803603810190620001a1919062001784565b62000f47565b005b348015620001b657600080fd5b50620001c1620015c8565b604051620001d0919062001829565b60405180910390f35b348015620001e657600080fd5b50620001f1620015f1565b60405162000200919062001829565b60405180910390f35b3480156200021657600080fd5b506200022162001658565b604051620002309190620017c7565b60405180910390f35b3480156200024657600080fd5b506200026560048036038101906200025f919062001877565b62001662565b005b62000271620016a9565b8060068190555050565b600073ffffffffffffffffffffffffffffffffffffffff16600160003373ffffffffffffffffffffffffffffffffffffffff1673ffffffffffffffffffffffffffffffffffffffff16815260200190815260200160002060009054906101000a900473ffffffffffffffffffffffffffffffffffffffff1673ffffffffffffffffffffffffffffffffffffffff1614158015620005185750600060038111156200032a5762000329620018a9565b5b600160003373ffffffffffffffffffffffffffffffffffffffff1673ffffffffffffffffffffffffffffffffffffffff16815260200190815260200160002060009054906101000a900473ffffffffffffffffffffffffffffffffffffffff1673ffffffffffffffffffffffffffffffffffffffff16634e69d5606040518163ffffffff1660e01b8152600401602060405180830381865afa158015620003d5573d6000803e3d6000fd5b505050506040513d601f19601f82011682018060405250810190620003fb919062001900565b600381111562000410576200040f620018a9565b5b1480620005175750600160038111156200042f576200042e620018a9565b5b600160003373ffffffffffffffffffffffffffffffffffffffff1673ffffffffffffffffffffffffffffffffffffffff16815260200190815260200160002060009054906101000a900473ffffffffffffffffffffffffffffffffffffffff1673ffffffffffffffffffffffffffffffffffffffff16634e69d5606040518163ffffffff1660e01b8152600401602060405180830381865afa158015620004da573d6000803e3d6000fd5b505050506040513d601f19601f8201168201806040525081019062000500919062001900565b6003811115620005155762000514620018a9565b5b145b5b6200055a576040517f08c379a00000000000000000000000000000000000000000000000000000000081526004016200055190620019df565b60405180910390fd5b600160003373ffffffffffffffffffffffffffffffffffffffff1673ffffffffffffffffffffffffffffffffffffffff16815260200190815260200160002060009054906101000a900473ffffffffffffffffffffffffffffffffffffffff1673ffffffffffffffffffffffffffffffffffffffff166355df1ba46040518163ffffffff1660e01b8152600401600060405180830381600087803b1580156200060257600080fd5b505af115801562000617573d6000803e3d6000fd5b50505050600060026000600160003373ffffffffffffffffffffffffffffffffffffffff1673ffffffffffffffffffffffffffffffffffffffff16815260200190815260200160002060009054906101000a900473ffffffffffffffffffffffffffffffffffffffff1673ffffffffffffffffffffffffffffffffffffffff1673ffffffffffffffffffffffffffffffffffffffff168152602001908152602001600020819055503373ffffffffffffffffffffffffffffffffffffffff16600160003373ffffffffffffffffffffffffffffffffffffffff1673ffffffffffffffffffffffffffffffffffffffff16815260200190815260200160002060009054906101000a900473ffffffffffffffffffffffffffffffffffffffff1673ffffffffffffffffffffffffffffffffffffffff167f86bd08b7d497dd37253f3c3a53226b4048f77636eb1b788b8c8e9b74a26cc73b426040516200077d9190620017c7565b60405180910390a3565b6000600354905090565b600073ffffffffffffffffffffffffffffffffffffffff16600160003373ffffffffffffffffffffffffffffffffffffffff1673ffffffffffffffffffffffffffffffffffffffff16815260200190815260200160002060009054906101000a900473ffffffffffffffffffffffffffffffffffffffff1673ffffffffffffffffffffffffffffffffffffffff161415801562000a2e57506000600381111562000840576200083f620018a9565b5b600160003373ffffffffffffffffffffffffffffffffffffffff1673ffffffffffffffffffffffffffffffffffffffff16815260200190815260200160002060009054906101000a900473ffffffffffffffffffffffffffffffffffffffff1673ffffffffffffffffffffffffffffffffffffffff16634e69d5606040518163ffffffff1660e01b8152600401602060405180830381865afa158015620008eb573d6000803e3d6000fd5b505050506040513d601f19601f8201168201806040525081019062000911919062001900565b6003811115620009265762000925620018a9565b5b148062000a2d575060016003811115620009455762000944620018a9565b5b600160003373ffffffffffffffffffffffffffffffffffffffff1673ffffffffffffffffffffffffffffffffffffffff16815260200190815260200160002060009054906101000a900473ffffffffffffffffffffffffffffffffffffffff1673ffffffffffffffffffffffffffffffffffffffff16634e69d5606040518163ffffffff1660e01b8152600401602060405180830381865afa158015620009f0573d6000803e3d6000fd5b505050506040513d601f19601f8201168201806040525081019062000a16919062001900565b600381111562000a2b5762000a2a620018a9565b5b145b5b62000a70576040517f08c379a000000000000000000000000000000000000000000000000000000000815260040162000a6790620019df565b60405180910390fd5b600160003373ffffffffffffffffffffffffffffffffffffffff1673ffffffffffffffffffffffffffffffffffffffff16815260200190815260200160002060009054906101000a900473ffffffffffffffffffffffffffffffffffffffff1673ffffffffffffffffffffffffffffffffffffffff16635392d8076040518163ffffffff1660e01b8152600401600060405180830381600087803b15801562000b1857600080fd5b505af115801562000b2d573d6000803e3d6000fd5b505050506000600160003373ffffffffffffffffffffffffffffffffffffffff1673ffffffffffffffffffffffffffffffffffffffff16815260200190815260200160002060009054906101000a900473ffffffffffffffffffffffffffffffffffffffff1673ffffffffffffffffffffffffffffffffffffffff16633d074aeb6040518163ffffffff1660e01b8152600401602060405180830381865afa15801562000bde573d6000803e3d6000fd5b505050506040513d601f19601f8201168201806040525081019062000c04919062001a18565b9050600060026000600160003373ffffffffffffffffffffffffffffffffffffffff1673ffffffffffffffffffffffffffffffffffffffff16815260200190815260200160002060009054906101000a900473ffffffffffffffffffffffffffffffffffffffff1673ffffffffffffffffffffffffffffffffffffffff1673ffffffffffffffffffffffffffffffffffffffff168152602001908152602001600020549050600060026000600160003373ffffffffffffffffffffffffffffffffffffffff1673ffffffffffffffffffffffffffffffffffffffff16815260200190815260200160002060009054906101000a900473ffffffffffffffffffffffffffffffffffffffff1673ffffffffffffffffffffffffffffffffffffffff1673ffffffffffffffffffffffffffffffffffffffff1681526020019081526020016000208190555042821062000e2057600460009054906101000a900473ffffffffffffffffffffffffffffffffffffffff1673ffffffffffffffffffffffffffffffffffffffff166323b872dd600560009054906101000a900473ffffffffffffffffffffffffffffffffffffffff1633846040518463ffffffff1660e01b815260040162000dd89392919062001a4a565b6020604051808303816000875af115801562000df8573d6000803e3d6000fd5b505050506040513d601f19601f8201168201806040525081019062000e1e919062001ac4565b505b3373ffffffffffffffffffffffffffffffffffffffff16600160003373ffffffffffffffffffffffffffffffffffffffff1673ffffffffffffffffffffffffffffffffffffffff16815260200190815260200160002060009054906101000a900473ffffffffffffffffffffffffffffffffffffffff1673ffffffffffffffffffffffffffffffffffffffff167f68d2d968b5381baf57dd745159b75e7bb27b300db5fcef3eaabb6b24fd3e99b6844260405162000ee092919062001af6565b60405180910390a35050565b62000ef6620016a9565b8060038190555050565b62000f0a620016a9565b6040517f08c379a000000000000000000000000000000000000000000000000000000000815260040162000f3e9062001b99565b60405180910390fd5b60006003541162000f8f576040517f08c379a000000000000000000000000000000000000000000000000000000000815260040162000f869062001c57565b60405180910390fd5b600073ffffffffffffffffffffffffffffffffffffffff16600160003373ffffffffffffffffffffffffffffffffffffffff1673ffffffffffffffffffffffffffffffffffffffff16815260200190815260200160002060009054906101000a900473ffffffffffffffffffffffffffffffffffffffff1673ffffffffffffffffffffffffffffffffffffffff1614806200112357506003808111156200103b576200103a620018a9565b5b600160003373ffffffffffffffffffffffffffffffffffffffff1673ffffffffffffffffffffffffffffffffffffffff16815260200190815260200160002060009054906101000a900473ffffffffffffffffffffffffffffffffffffffff1673ffffffffffffffffffffffffffffffffffffffff16634e69d5606040518163ffffffff1660e01b8152600401602060405180830381865afa158015620010e6573d6000803e3d6000fd5b505050506040513d601f19601f820116820180604052508101906200110c919062001900565b6003811115620011215762001120620018a9565b5b145b8062001229575060026003811115620011415762001140620018a9565b5b600160003373ffffffffffffffffffffffffffffffffffffffff1673ffffffffffffffffffffffffffffffffffffffff16815260200190815260200160002060009054906101000a900473ffffffffffffffffffffffffffffffffffffffff1673ffffffffffffffffffffffffffffffffffffffff16634e69d5606040518163ffffffff1660e01b8152600401602060405180830381865afa158015620011ec573d6000803e3d6000fd5b505050506040513d601f19601f8201168201806040525081019062001212919062001900565b6003811115620012275762001226620018a9565b5b145b6200126b576040517f08c379a0000000000000000000000000000000000000000000000000000000008152600401620012629062001d15565b60405180910390fd5b6000610e10826200127d919062001d66565b426200128a919062001dc7565b905033816040516200129c9062001736565b620012a992919062001e02565b604051809103906000f080158015620012c6573d6000803e3d6000fd5b50600160003373ffffffffffffffffffffffffffffffffffffffff1673ffffffffffffffffffffffffffffffffffffffff16815260200190815260200160002060006101000a81548173ffffffffffffffffffffffffffffffffffffffff021916908373ffffffffffffffffffffffffffffffffffffffff16021790555060036000815480929190620013599062001e2f565b919050555060008260065462001370919062001d66565b9050600460009054906101000a900473ffffffffffffffffffffffffffffffffffffffff1673ffffffffffffffffffffffffffffffffffffffff166323b872dd33600560009054906101000a900473ffffffffffffffffffffffffffffffffffffffff16846040518463ffffffff1660e01b8152600401620013f59392919062001a4a565b6020604051808303816000875af115801562001415573d6000803e3d6000fd5b505050506040513d601f19601f820116820180604052508101906200143b919062001ac4565b5060036004826200144d919062001e8c565b62001459919062001d66565b60026000600160003373ffffffffffffffffffffffffffffffffffffffff1673ffffffffffffffffffffffffffffffffffffffff16815260200190815260200160002060009054906101000a900473ffffffffffffffffffffffffffffffffffffffff1673ffffffffffffffffffffffffffffffffffffffff1673ffffffffffffffffffffffffffffffffffffffff168152602001908152602001600020819055503373ffffffffffffffffffffffffffffffffffffffff16600160003373ffffffffffffffffffffffffffffffffffffffff1673ffffffffffffffffffffffffffffffffffffffff16815260200190815260200160002060009054906101000a900473ffffffffffffffffffffffffffffffffffffffff1673ffffffffffffffffffffffffffffffffffffffff167fbd0277af4cb5c27b2b76de0390400fa1fd49a1c18e361159d3dc24c3a3dc9a024285604051620015bb92919062001af6565b60405180910390a3505050565b60008060009054906101000a900473ffffffffffffffffffffffffffffffffffffffff16905090565b6000600160003373ffffffffffffffffffffffffffffffffffffffff1673ffffffffffffffffffffffffffffffffffffffff16815260200190815260200160002060009054906101000a900473ffffffffffffffffffffffffffffffffffffffff16905090565b6000600654905090565b6200166c620016a9565b6040517f08c379a0000000000000000000000000000000000000000000000000000000008152600401620016a09062001f3a565b60405180910390fd5b620016b36200172e565b73ffffffffffffffffffffffffffffffffffffffff16620016d3620015c8565b73ffffffffffffffffffffffffffffffffffffffff16146200172c576040517f08c379a0000000000000000000000000000000000000000000000000000000008152600401620017239062001fac565b60405180910390fd5b565b600033905090565b610b978062001fcf83390190565b600080fd5b6000819050919050565b6200175e8162001749565b81146200176a57600080fd5b50565b6000813590506200177e8162001753565b92915050565b6000602082840312156200179d576200179c62001744565b5b6000620017ad848285016200176d565b91505092915050565b620017c18162001749565b82525050565b6000602082019050620017de6000830184620017b6565b92915050565b600073ffffffffffffffffffffffffffffffffffffffff82169050919050565b60006200181182620017e4565b9050919050565b620018238162001804565b82525050565b600060208201905062001840600083018462001818565b92915050565b620018518162001804565b81146200185d57600080fd5b50565b600081359050620018718162001846565b92915050565b60006020828403121562001890576200188f62001744565b5b6000620018a08482850162001860565b91505092915050565b7f4e487b7100000000000000000000000000000000000000000000000000000000600052602160045260246000fd5b60048110620018e657600080fd5b50565b600081519050620018fa81620018d8565b92915050565b60006020828403121562001919576200191862001744565b5b60006200192984828501620018e9565b91505092915050565b600082825260208201905092915050565b7f4875726242696b6553686172654d616e616765723a205468657265206973206e60008201527f6f2072656e74206173736f6369617465642077697468207468652063616c6c6560208201527f72277320616464726573732e0000000000000000000000000000000000000000604082015250565b6000620019c7604c8362001932565b9150620019d48262001943565b606082019050919050565b60006020820190508181036000830152620019fa81620019b8565b9050919050565b60008151905062001a128162001753565b92915050565b60006020828403121562001a315762001a3062001744565b5b600062001a418482850162001a01565b91505092915050565b600060608201905062001a61600083018662001818565b62001a70602083018562001818565b62001a7f6040830184620017b6565b949350505050565b60008115159050919050565b62001a9e8162001a87565b811462001aaa57600080fd5b50565b60008151905062001abe8162001a93565b92915050565b60006020828403121562001add5762001adc62001744565b5b600062001aed8482850162001aad565b91505092915050565b600060408201905062001b0d6000830185620017b6565b62001b1c6020830184620017b6565b9392505050565b7f4875726242696b6553686172654d616e616765723a2043616e6e6f742072656e60008201527f6f756e6365206f776e6572736869702e00000000000000000000000000000000602082015250565b600062001b8160308362001932565b915062001b8e8262001b23565b604082019050919050565b6000602082019050818103600083015262001bb48162001b72565b9050919050565b7f4875726242696b6553686172654d616e616765723a205468657265206973206e60008201527f6f20617661696c61626c6520487572622062696b657320746f2062652072656e60208201527f7465642e00000000000000000000000000000000000000000000000000000000604082015250565b600062001c3f60448362001932565b915062001c4c8262001bbb565b606082019050919050565b6000602082019050818103600083015262001c728162001c30565b9050919050565b7f4875726242696b6553686172654d616e616765723a205468657265206973206160008201527f6e206f6e676f696e672072656e7420616c7265616479206173736f636961746560208201527f642077697468207468652063616c6c6572277320616464726573732e00000000604082015250565b600062001cfd605c8362001932565b915062001d0a8262001c79565b606082019050919050565b6000602082019050818103600083015262001d308162001cee565b9050919050565b7f4e487b7100000000000000000000000000000000000000000000000000000000600052601160045260246000fd5b600062001d738262001749565b915062001d808362001749565b9250817fffffffffffffffffffffffffffffffffffffffffffffffffffffffffffffffff048311821515161562001dbc5762001dbb62001d37565b5b828202905092915050565b600062001dd48262001749565b915062001de18362001749565b925082820190508082111562001dfc5762001dfb62001d37565b5b92915050565b600060408201905062001e19600083018562001818565b62001e286020830184620017b6565b9392505050565b600062001e3c8262001749565b91506000820362001e525762001e5162001d37565b5b600182039050919050565b7f4e487b7100000000000000000000000000000000000000000000000000000000600052601260045260246000fd5b600062001e998262001749565b915062001ea68362001749565b92508262001eb95762001eb862001e5d565b5b828204905092915050565b7f4875726242696b6553686172654d616e616765723a2043616e6e6f742074726160008201527f6e73666572206f776e6572736869702e00000000000000000000000000000000602082015250565b600062001f2260308362001932565b915062001f2f8262001ec4565b604082019050919050565b6000602082019050818103600083015262001f558162001f13565b9050919050565b7f4f776e61626c653a2063616c6c6572206973206e6f7420746865206f776e6572600082015250565b600062001f9460208362001932565b915062001fa18262001f5c565b602082019050919050565b6000602082019050818103600083015262001fc78162001f85565b905091905056fe60806040523480156200001157600080fd5b5060405162000b9738038062000b9783398181016040528101906200003791906200024d565b620000576200004b620000dc60201b60201c565b620000e460201b60201c565b81600160006101000a81548173ffffffffffffffffffffffffffffffffffffffff021916908373ffffffffffffffffffffffffffffffffffffffff1602179055506000600160146101000a81548160ff02191690836003811115620000c157620000c062000294565b5b021790555042600281905550806003819055505050620002c3565b600033905090565b60008060009054906101000a900473ffffffffffffffffffffffffffffffffffffffff169050816000806101000a81548173ffffffffffffffffffffffffffffffffffffffff021916908373ffffffffffffffffffffffffffffffffffffffff1602179055508173ffffffffffffffffffffffffffffffffffffffff168173ffffffffffffffffffffffffffffffffffffffff167f8be0079c531659141344cd1fd0a4f28419497f9722a3daafe3b4186f6b6457e060405160405180910390a35050565b600080fd5b600073ffffffffffffffffffffffffffffffffffffffff82169050919050565b6000620001da82620001ad565b9050919050565b620001ec81620001cd565b8114620001f857600080fd5b50565b6000815190506200020c81620001e1565b92915050565b6000819050919050565b620002278162000212565b81146200023357600080fd5b50565b60008151905062000247816200021c565b92915050565b60008060408385031215620002675762000266620001a8565b5b60006200027785828601620001fb565b92505060206200028a8582860162000236565b9150509250929050565b7f4e487b7100000000000000000000000000000000000000000000000000000000600052602160045260246000fd5b6108c480620002d36000396000f3fe608060405234801561001057600080fd5b506004361061009e5760003560e01c8063715018a611610066578063715018a6146101115780637f6ae7701461011b5780638da5cb5b14610139578063c1da7e9b14610157578063f2fde38b146101755761009e565b80630dc0c971146100a35780633d074aeb146100c15780634e69d560146100df5780635392d807146100fd57806355df1ba414610107575b600080fd5b6100ab610191565b6040516100b891906104f4565b60405180910390f35b6100c961019b565b6040516100d691906104f4565b60405180910390f35b6100e76101a5565b6040516100f49190610586565b60405180910390f35b61010561020e565b005b61010f6102c0565b005b610119610372565b005b6101236103b5565b60405161013091906105e2565b60405180910390f35b6101416103df565b60405161014e91906105e2565b60405180910390f35b61015f610408565b60405161016c91906104f4565b60405180910390f35b61018f600480360381019061018a919061062e565b610412565b005b6000600254905090565b6000600354905090565b60008060038111156101ba576101b961050f565b5b600160149054906101000a900460ff1660038111156101dc576101db61050f565b5b1480156101ea575060035442115b156101f8576001905061020b565b600160149054906101000a900460ff1690505b90565b600060038111156102225761022161050f565b5b600160149054906101000a900460ff1660038111156102445761024361050f565b5b14610284576040517f08c379a000000000000000000000000000000000000000000000000000000000815260040161027b906106de565b60405180910390fd5b61028c610455565b6003600160146101000a81548160ff021916908360038111156102b2576102b161050f565b5b021790555042600481905550565b600060038111156102d4576102d361050f565b5b600160149054906101000a900460ff1660038111156102f6576102f561050f565b5b14610336576040517f08c379a000000000000000000000000000000000000000000000000000000000815260040161032d906106de565b60405180910390fd5b61033e610455565b6002600160146101000a81548160ff021916908360038111156103645761036361050f565b5b021790555042600481905550565b61037a610455565b6040517f08c379a00000000000000000000000000000000000000000000000000000000081526004016103ac90610770565b60405180910390fd5b6000600160009054906101000a900473ffffffffffffffffffffffffffffffffffffffff16905090565b60008060009054906101000a900473ffffffffffffffffffffffffffffffffffffffff16905090565b6000600454905090565b61041a610455565b6040517f08c379a000000000000000000000000000000000000000000000000000000000815260040161044c90610802565b60405180910390fd5b61045d6104d3565b73ffffffffffffffffffffffffffffffffffffffff1661047b6103df565b73ffffffffffffffffffffffffffffffffffffffff16146104d1576040517f08c379a00000000000000000000000000000000000000000000000000000000081526004016104c89061086e565b60405180910390fd5b565b600033905090565b6000819050919050565b6104ee816104db565b82525050565b600060208201905061050960008301846104e5565b92915050565b7f4e487b7100000000000000000000000000000000000000000000000000000000600052602160045260246000fd5b6004811061054f5761054e61050f565b5b50565b60008190506105608261053e565b919050565b600061057082610552565b9050919050565b61058081610565565b82525050565b600060208201905061059b6000830184610577565b92915050565b600073ffffffffffffffffffffffffffffffffffffffff82169050919050565b60006105cc826105a1565b9050919050565b6105dc816105c1565b82525050565b60006020820190506105f760008301846105d3565b92915050565b600080fd5b61060b816105c1565b811461061657600080fd5b50565b60008135905061062881610602565b92915050565b600060208284031215610644576106436105fd565b5b600061065284828501610619565b91505092915050565b600082825260208201905092915050565b7f4875726242696b6552656e743a205468652072656e74206973206e6f7420696e60008201527f2070726f67726573732e00000000000000000000000000000000000000000000602082015250565b60006106c8602a8361065b565b91506106d38261066c565b604082019050919050565b600060208201905081810360008301526106f7816106bb565b9050919050565b7f4875726242696b6552656e743a2043616e6e6f742072656e6f756e6365206f7760008201527f6e6572736869702e000000000000000000000000000000000000000000000000602082015250565b600061075a60288361065b565b9150610765826106fe565b604082019050919050565b600060208201905081810360008301526107898161074d565b9050919050565b7f4875726242696b6552656e743a2043616e6e6f74207472616e73666572206f7760008201527f6e6572736869702e000000000000000000000000000000000000000000000000602082015250565b60006107ec60288361065b565b91506107f782610790565b604082019050919050565b6000602082019050818103600083015261081b816107df565b9050919050565b7f4f776e61626c653a2063616c6c6572206973206e6f7420746865206f776e6572600082015250565b600061085860208361065b565b915061086382610822565b602082019050919050565b600060208201905081810360008301526108878161084b565b905091905056fea26469706673582212201ff39682a1d77139487ffca44d250cd0a1b65377ae6eacc08efe375fb1dee96664736f6c63430008100033a2646970667358221220eb02599f30f7408be5ee278dd40c09a06f197dbe1664d528c57e9786f28e2f4164736f6c63430008100033",
  "immutableReferences": {},
  "source": "//SPDX-License-Identifier: MIT\n\npragma solidity ^0.8.0;\n\nimport \"@openzeppelin/contracts/access/Ownable.sol\";\nimport \"@openzeppelin/contracts/token/ERC20/IERC20.sol\";\nimport \"./HurbBikeRent.sol\";\n\ncontract HurbBikeShareManager is Ownable {\n    mapping(address => HurbBikeRent) private hurbBikeRentals;\n    mapping(HurbBikeRent => uint) private guaranteeTokens;\n    uint private availableHurbBikes;\n\n    IERC20 private hurbToken;\n    address private hurbWallet;\n    uint private tokensPerHour;\n\n    event BikeRentalStarted(address indexed rent, address indexed renter, uint startingTime, uint endingTime);\n    event BikeRentalCompleted(address indexed rent, address indexed renter, uint agreementEndingTime, uint endingTime);\n    event LossOfRent(address indexed rent, address indexed renter, uint lossOfRentTime);\n\n    modifier available() {\n        require(availableHurbBikes > 0, \"HurbBikeShareManager: There is no available Hurb bikes to be rented.\");\n        _;\n    }\n\n    modifier allowed() {\n        // The call for getStatus() is repeated in the condition below to make use of the short-circuiting.\n        require(address(hurbBikeRentals[msg.sender]) == address(0) || hurbBikeRentals[msg.sender].getStatus() == HurbBikeRent.Status.COMPLETED || hurbBikeRentals[msg.sender].getStatus() == HurbBikeRent.Status.LOSS_OF_RENT, \"HurbBikeShareManager: There is an ongoing rent already associated with the caller's address.\");\n        _;\n    }\n\n    modifier inProgress() {\n        // The call for getStatus() is repeated in the condition below to make use of the short-circuiting.\n        require(address(hurbBikeRentals[msg.sender]) != address(0) && (hurbBikeRentals[msg.sender].getStatus() == HurbBikeRent.Status.IN_PROGRESS || hurbBikeRentals[msg.sender].getStatus() == HurbBikeRent.Status.DEFAULTED), \"HurbBikeShareManager: There is no rent associated with the caller's address.\");\n        _;\n    }\n\n    constructor(IERC20 _hurbToken, address _hurbWallet) {\n        hurbToken = _hurbToken;\n        hurbWallet = _hurbWallet;\n    }\n\n    function getHurbBikeRental() public view returns(address) {\n        return address(hurbBikeRentals[msg.sender]);\n    }\n\n    function getAvailableHurbBikes() public view returns(uint) {\n        return availableHurbBikes;\n    }\n\n    function setAvailableHurbBikes(uint _availableHurbBikes) external onlyOwner {\n        availableHurbBikes = _availableHurbBikes;\n    }\n\n    function getTokensPerHour() external view returns(uint) {\n        return tokensPerHour;\n    }\n\n    function setTokensPerHour(uint _tokensPerHour) external onlyOwner {\n        tokensPerHour = _tokensPerHour;\n    }\n\n    function rentBike(uint _rentHours) external payable available allowed {\n        uint endingTime = block.timestamp + (_rentHours * 1 hours);\n        hurbBikeRentals[msg.sender] = new HurbBikeRent(msg.sender, endingTime);\n        availableHurbBikes--;\n\n        uint amountToTransfer = tokensPerHour * _rentHours;\n\n        hurbToken.transferFrom(msg.sender, hurbWallet, amountToTransfer);\n\n        guaranteeTokens[hurbBikeRentals[msg.sender]] = (amountToTransfer / 4) * 3;\n\n        emit BikeRentalStarted(address(hurbBikeRentals[msg.sender]), msg.sender, block.timestamp, endingTime);\n    }\n\n    function returnBike() external inProgress {\n        hurbBikeRentals[msg.sender].returnBikeRent();\n\n        uint agreementEndingTime = hurbBikeRentals[msg.sender].getAgreementEndingTime();\n\n        uint amountToTransfer = guaranteeTokens[hurbBikeRentals[msg.sender]];\n        guaranteeTokens[hurbBikeRentals[msg.sender]] = 0;\n\n        if (agreementEndingTime >= block.timestamp) {\n            hurbToken.transferFrom(hurbWallet, msg.sender, amountToTransfer);\n        }\n\n        emit BikeRentalCompleted(address(hurbBikeRentals[msg.sender]), msg.sender, agreementEndingTime, block.timestamp);\n    }\n\n    function registerLossOfRent() external inProgress {\n        hurbBikeRentals[msg.sender].registerLossOfRent();\n\n        guaranteeTokens[hurbBikeRentals[msg.sender]] = 0;\n\n        emit LossOfRent(address(hurbBikeRentals[msg.sender]), msg.sender, block.timestamp);\n    }\n\n    function renounceOwnership() public view override onlyOwner {\n        revert(\"HurbBikeShareManager: Cannot renounce ownership.\");\n    }\n\n    function transferOwnership(address) public view override onlyOwner {\n        revert(\"HurbBikeShareManager: Cannot transfer ownership.\");\n    }\n}\n",
  "sourcePath": "/Users/magnonasc/Documents/Projects/challenge-sierra/contracts/HurbBikeShareManager.sol",
  "compiler": {
    "name": "solc",
    "version": "0.8.16+commit.07a7930e.Emscripten.clang"
  },
  "schemaVersion": "3.4.9",
  "updatedAt": "2022-09-11T07:10:44.909Z",
  "devdoc": {
    "kind": "dev",
    "methods": {
      "owner()": {
        "details": "Returns the address of the current owner."
      },
      "renounceOwnership()": {
        "details": "Leaves the contract without owner. It will not be possible to call `onlyOwner` functions anymore. Can only be called by the current owner. NOTE: Renouncing ownership will leave the contract without an owner, thereby removing any functionality that is only available to the owner."
      }
    },
    "version": 1
  },
  "userdoc": {
    "kind": "user",
    "methods": {},
    "version": 1
  }
}