{
  "contractName": "HurbBikeRent",
  "abi": [
    {
      "inputs": [
        {
          "internalType": "address",
          "name": "_renter",
          "type": "address"
        },
        {
          "internalType": "uint256",
          "name": "_agreementEndingTime",
          "type": "uint256"
        }
      ],
      "stateMutability": "nonpayable",
      "type": "constructor"
    },
    {
      "anonymous": false,
      "inputs": [
        {
          "indexed": true,
          "internalType": "address",
          "name": "previousOwner",
          "type": "address"
        },
        {
          "indexed": true,
          "internalType": "address",
          "name": "newOwner",
          "type": "address"
        }
      ],
      "name": "OwnershipTransferred",
      "type": "event"
    },
    {
      "inputs": [],
      "name": "owner",
      "outputs": [
        {
          "internalType": "address",
          "name": "",
          "type": "address"
        }
      ],
      "stateMutability": "view",
      "type": "function",
      "constant": true
    },
    {
      "inputs": [],
      "name": "getRenter",
      "outputs": [
        {
          "internalType": "address",
          "name": "",
          "type": "address"
        }
      ],
      "stateMutability": "view",
      "type": "function",
      "constant": true
    },
    {
      "inputs": [],
      "name": "getStatus",
      "outputs": [
        {
          "internalType": "enum HurbBikeRent.Status",
          "name": "",
          "type": "uint8"
        }
      ],
      "stateMutability": "view",
      "type": "function",
      "constant": true
    },
    {
      "inputs": [],
      "name": "getStartingTime",
      "outputs": [
        {
          "internalType": "uint256",
          "name": "",
          "type": "uint256"
        }
      ],
      "stateMutability": "view",
      "type": "function",
      "constant": true
    },
    {
      "inputs": [],
      "name": "getAgreementEndingTime",
      "outputs": [
        {
          "internalType": "uint256",
          "name": "",
          "type": "uint256"
        }
      ],
      "stateMutability": "view",
      "type": "function",
      "constant": true
    },
    {
      "inputs": [],
      "name": "getEndingTime",
      "outputs": [
        {
          "internalType": "uint256",
          "name": "",
          "type": "uint256"
        }
      ],
      "stateMutability": "view",
      "type": "function",
      "constant": true
    },
    {
      "inputs": [],
      "name": "returnBikeRent",
      "outputs": [],
      "stateMutability": "nonpayable",
      "type": "function"
    },
    {
      "inputs": [],
      "name": "registerLossOfRent",
      "outputs": [],
      "stateMutability": "nonpayable",
      "type": "function"
    },
    {
      "inputs": [],
      "name": "renounceOwnership",
      "outputs": [],
      "stateMutability": "view",
      "type": "function",
      "constant": true
    },
    {
      "inputs": [
        {
          "internalType": "address",
          "name": "",
          "type": "address"
        }
      ],
      "name": "transferOwnership",
      "outputs": [],
      "stateMutability": "view",
      "type": "function",
      "constant": true
    }
  ],
  "bytecode": "0x60806040523480156200001157600080fd5b5060405162000b9738038062000b9783398181016040528101906200003791906200024d565b620000576200004b620000dc60201b60201c565b620000e460201b60201c565b81600160006101000a81548173ffffffffffffffffffffffffffffffffffffffff021916908373ffffffffffffffffffffffffffffffffffffffff1602179055506000600160146101000a81548160ff02191690836003811115620000c157620000c062000294565b5b021790555042600281905550806003819055505050620002c3565b600033905090565b60008060009054906101000a900473ffffffffffffffffffffffffffffffffffffffff169050816000806101000a81548173ffffffffffffffffffffffffffffffffffffffff021916908373ffffffffffffffffffffffffffffffffffffffff1602179055508173ffffffffffffffffffffffffffffffffffffffff168173ffffffffffffffffffffffffffffffffffffffff167f8be0079c531659141344cd1fd0a4f28419497f9722a3daafe3b4186f6b6457e060405160405180910390a35050565b600080fd5b600073ffffffffffffffffffffffffffffffffffffffff82169050919050565b6000620001da82620001ad565b9050919050565b620001ec81620001cd565b8114620001f857600080fd5b50565b6000815190506200020c81620001e1565b92915050565b6000819050919050565b620002278162000212565b81146200023357600080fd5b50565b60008151905062000247816200021c565b92915050565b60008060408385031215620002675762000266620001a8565b5b60006200027785828601620001fb565b92505060206200028a8582860162000236565b9150509250929050565b7f4e487b7100000000000000000000000000000000000000000000000000000000600052602160045260246000fd5b6108c480620002d36000396000f3fe608060405234801561001057600080fd5b506004361061009e5760003560e01c8063715018a611610066578063715018a6146101115780637f6ae7701461011b5780638da5cb5b14610139578063c1da7e9b14610157578063f2fde38b146101755761009e565b80630dc0c971146100a35780633d074aeb146100c15780634e69d560146100df5780635392d807146100fd57806355df1ba414610107575b600080fd5b6100ab610191565b6040516100b891906104f4565b60405180910390f35b6100c961019b565b6040516100d691906104f4565b60405180910390f35b6100e76101a5565b6040516100f49190610586565b60405180910390f35b61010561020e565b005b61010f6102c0565b005b610119610372565b005b6101236103b5565b60405161013091906105e2565b60405180910390f35b6101416103df565b60405161014e91906105e2565b60405180910390f35b61015f610408565b60405161016c91906104f4565b60405180910390f35b61018f600480360381019061018a919061062e565b610412565b005b6000600254905090565b6000600354905090565b60008060038111156101ba576101b961050f565b5b600160149054906101000a900460ff1660038111156101dc576101db61050f565b5b1480156101ea575060035442115b156101f8576001905061020b565b600160149054906101000a900460ff1690505b90565b600060038111156102225761022161050f565b5b600160149054906101000a900460ff1660038111156102445761024361050f565b5b14610284576040517f08c379a000000000000000000000000000000000000000000000000000000000815260040161027b906106de565b60405180910390fd5b61028c610455565b6003600160146101000a81548160ff021916908360038111156102b2576102b161050f565b5b021790555042600481905550565b600060038111156102d4576102d361050f565b5b600160149054906101000a900460ff1660038111156102f6576102f561050f565b5b14610336576040517f08c379a000000000000000000000000000000000000000000000000000000000815260040161032d906106de565b60405180910390fd5b61033e610455565b6002600160146101000a81548160ff021916908360038111156103645761036361050f565b5b021790555042600481905550565b61037a610455565b6040517f08c379a00000000000000000000000000000000000000000000000000000000081526004016103ac90610770565b60405180910390fd5b6000600160009054906101000a900473ffffffffffffffffffffffffffffffffffffffff16905090565b60008060009054906101000a900473ffffffffffffffffffffffffffffffffffffffff16905090565b6000600454905090565b61041a610455565b6040517f08c379a000000000000000000000000000000000000000000000000000000000815260040161044c90610802565b60405180910390fd5b61045d6104d3565b73ffffffffffffffffffffffffffffffffffffffff1661047b6103df565b73ffffffffffffffffffffffffffffffffffffffff16146104d1576040517f08c379a00000000000000000000000000000000000000000000000000000000081526004016104c89061086e565b60405180910390fd5b565b600033905090565b6000819050919050565b6104ee816104db565b82525050565b600060208201905061050960008301846104e5565b92915050565b7f4e487b7100000000000000000000000000000000000000000000000000000000600052602160045260246000fd5b6004811061054f5761054e61050f565b5b50565b60008190506105608261053e565b919050565b600061057082610552565b9050919050565b61058081610565565b82525050565b600060208201905061059b6000830184610577565b92915050565b600073ffffffffffffffffffffffffffffffffffffffff82169050919050565b60006105cc826105a1565b9050919050565b6105dc816105c1565b82525050565b60006020820190506105f760008301846105d3565b92915050565b600080fd5b61060b816105c1565b811461061657600080fd5b50565b60008135905061062881610602565b92915050565b600060208284031215610644576106436105fd565b5b600061065284828501610619565b91505092915050565b600082825260208201905092915050565b7f4875726242696b6552656e743a205468652072656e74206973206e6f7420696e60008201527f2070726f67726573732e00000000000000000000000000000000000000000000602082015250565b60006106c8602a8361065b565b91506106d38261066c565b604082019050919050565b600060208201905081810360008301526106f7816106bb565b9050919050565b7f4875726242696b6552656e743a2043616e6e6f742072656e6f756e6365206f7760008201527f6e6572736869702e000000000000000000000000000000000000000000000000602082015250565b600061075a60288361065b565b9150610765826106fe565b604082019050919050565b600060208201905081810360008301526107898161074d565b9050919050565b7f4875726242696b6552656e743a2043616e6e6f74207472616e73666572206f7760008201527f6e6572736869702e000000000000000000000000000000000000000000000000602082015250565b60006107ec60288361065b565b91506107f782610790565b604082019050919050565b6000602082019050818103600083015261081b816107df565b9050919050565b7f4f776e61626c653a2063616c6c6572206973206e6f7420746865206f776e6572600082015250565b600061085860208361065b565b915061086382610822565b602082019050919050565b600060208201905081810360008301526108878161084b565b905091905056fea26469706673582212201ff39682a1d77139487ffca44d250cd0a1b65377ae6eacc08efe375fb1dee96664736f6c63430008100033",
  "immutableReferences": {},
  "source": "//SPDX-License-Identifier: MIT\n\npragma solidity ^0.8.0;\n\nimport \"@openzeppelin/contracts/access/Ownable.sol\";\n\ncontract HurbBikeRent is Ownable {\n    enum Status{ IN_PROGRESS, DEFAULTED, LOSS_OF_RENT, COMPLETED }\n\n    address private renter;\n    Status private status;\n    uint private startingTime;\n    uint private agreementEndingTime;\n    uint private endingTime;\n\n    constructor(address _renter, uint _agreementEndingTime) {\n        renter = _renter;\n        status = Status.IN_PROGRESS;\n        startingTime = block.timestamp;\n        agreementEndingTime = _agreementEndingTime;\n    }\n\n    modifier inProgress() {\n        require(status == Status.IN_PROGRESS, \"HurbBikeRent: The rent is not in progress.\");\n        _;\n    }\n\n    function getRenter() public view returns(address) {\n        return renter;\n    }\n\n    function getStatus() public view returns(Status) {\n        if (status == Status.IN_PROGRESS && block.timestamp > agreementEndingTime) {\n            return Status.DEFAULTED;\n        }\n\n        return status;\n    }\n\n    function getStartingTime() public view returns(uint) {\n        return startingTime;\n    }\n\n    function getAgreementEndingTime() public view returns(uint) {\n        return agreementEndingTime;\n    }\n\n    function getEndingTime() public view returns(uint) {\n        return endingTime;\n    }\n\n    function returnBikeRent() public inProgress onlyOwner {\n        status = Status.COMPLETED;\n        endingTime = block.timestamp;\n    }\n\n    function registerLossOfRent() public inProgress onlyOwner {\n        status = Status.LOSS_OF_RENT;\n        endingTime = block.timestamp;\n    }\n\n    function renounceOwnership() public view override onlyOwner {\n        revert(\"HurbBikeRent: Cannot renounce ownership.\");\n    }\n\n    function transferOwnership(address) public view override onlyOwner {\n        revert(\"HurbBikeRent: Cannot transfer ownership.\");\n    }\n}\n",
  "sourcePath": "/Users/magnonasc/Documents/Projects/challenge-sierra/contracts/HurbBikeRent.sol",
  "compiler": {
    "name": "solc",
    "version": "0.8.16+commit.07a7930e.Emscripten.clang"
  },
  "schemaVersion": "3.4.9",
  "updatedAt": "2022-09-11T06:58:02.707Z",
  "networkType": "ethereum",
  "devdoc": {
    "kind": "dev",
    "methods": {
      "owner()": {
        "details": "Returns the address of the current owner."
      },
      "renounceOwnership()": {
        "details": "Leaves the contract without owner. It will not be possible to call `onlyOwner` functions anymore. Can only be called by the current owner. NOTE: Renouncing ownership will leave the contract without an owner, thereby removing any functionality that is only available to the owner."
      }
    },
    "version": 1
  },
  "userdoc": {
    "kind": "user",
    "methods": {},
    "version": 1
  }
}