{
  "contractName": "HurbBikeRent",
  "abi": [
    {
      "inputs": [
        {
          "internalType": "address",
          "name": "_renter",
          "type": "address"
        },
        {
          "internalType": "uint256",
          "name": "_agreementEndingTime",
          "type": "uint256"
        },
        {
          "internalType": "uint256",
          "name": "_rentValue",
          "type": "uint256"
        }
      ],
      "stateMutability": "nonpayable",
      "type": "constructor"
    },
    {
      "anonymous": false,
      "inputs": [
        {
          "indexed": true,
          "internalType": "address",
          "name": "previousOwner",
          "type": "address"
        },
        {
          "indexed": true,
          "internalType": "address",
          "name": "newOwner",
          "type": "address"
        }
      ],
      "name": "OwnershipTransferred",
      "type": "event"
    },
    {
      "inputs": [],
      "name": "owner",
      "outputs": [
        {
          "internalType": "address",
          "name": "",
          "type": "address"
        }
      ],
      "stateMutability": "view",
      "type": "function",
      "constant": true
    },
    {
      "inputs": [],
      "name": "getRenter",
      "outputs": [
        {
          "internalType": "address",
          "name": "",
          "type": "address"
        }
      ],
      "stateMutability": "view",
      "type": "function",
      "constant": true
    },
    {
      "inputs": [],
      "name": "getStatus",
      "outputs": [
        {
          "internalType": "uint8",
          "name": "",
          "type": "uint8"
        }
      ],
      "stateMutability": "view",
      "type": "function",
      "constant": true
    },
    {
      "inputs": [],
      "name": "getStartingTime",
      "outputs": [
        {
          "internalType": "uint256",
          "name": "",
          "type": "uint256"
        }
      ],
      "stateMutability": "view",
      "type": "function",
      "constant": true
    },
    {
      "inputs": [],
      "name": "getEndingTime",
      "outputs": [
        {
          "internalType": "uint256",
          "name": "",
          "type": "uint256"
        }
      ],
      "stateMutability": "view",
      "type": "function",
      "constant": true
    },
    {
      "inputs": [],
      "name": "getAgreementEndingTime",
      "outputs": [
        {
          "internalType": "uint256",
          "name": "",
          "type": "uint256"
        }
      ],
      "stateMutability": "view",
      "type": "function",
      "constant": true
    },
    {
      "inputs": [],
      "name": "getRentValue",
      "outputs": [
        {
          "internalType": "uint256",
          "name": "",
          "type": "uint256"
        }
      ],
      "stateMutability": "view",
      "type": "function",
      "constant": true
    },
    {
      "inputs": [],
      "name": "returnBikeRent",
      "outputs": [],
      "stateMutability": "nonpayable",
      "type": "function"
    },
    {
      "inputs": [],
      "name": "registerLossOfRent",
      "outputs": [],
      "stateMutability": "nonpayable",
      "type": "function"
    },
    {
      "inputs": [],
      "name": "renounceOwnership",
      "outputs": [],
      "stateMutability": "view",
      "type": "function",
      "constant": true
    },
    {
      "inputs": [
        {
          "internalType": "address",
          "name": "",
          "type": "address"
        }
      ],
      "name": "transferOwnership",
      "outputs": [],
      "stateMutability": "view",
      "type": "function",
      "constant": true
    }
  ],
  "bytecode": "0x60806040523480156200001157600080fd5b5060405162000bdf38038062000bdf833981810160405281019062000037919062000255565b620000576200004b620000e460201b60201c565b620000ec60201b60201c565b82600160006101000a81548173ffffffffffffffffffffffffffffffffffffffff021916908373ffffffffffffffffffffffffffffffffffffffff1602179055506000600160146101000a81548160ff02191690836003811115620000c157620000c0620002b1565b5b0217905550426002819055508160048190555080600581905550505050620002e0565b600033905090565b60008060009054906101000a900473ffffffffffffffffffffffffffffffffffffffff169050816000806101000a81548173ffffffffffffffffffffffffffffffffffffffff021916908373ffffffffffffffffffffffffffffffffffffffff1602179055508173ffffffffffffffffffffffffffffffffffffffff168173ffffffffffffffffffffffffffffffffffffffff167f8be0079c531659141344cd1fd0a4f28419497f9722a3daafe3b4186f6b6457e060405160405180910390a35050565b600080fd5b600073ffffffffffffffffffffffffffffffffffffffff82169050919050565b6000620001e282620001b5565b9050919050565b620001f481620001d5565b81146200020057600080fd5b50565b6000815190506200021481620001e9565b92915050565b6000819050919050565b6200022f816200021a565b81146200023b57600080fd5b50565b6000815190506200024f8162000224565b92915050565b600080600060608486031215620002715762000270620001b0565b5b6000620002818682870162000203565b935050602062000294868287016200023e565b9250506040620002a7868287016200023e565b9150509250925092565b7f4e487b7100000000000000000000000000000000000000000000000000000000600052602160045260246000fd5b6108ef80620002f06000396000f3fe608060405234801561001057600080fd5b50600436106100a95760003560e01c8063715018a611610071578063715018a61461011c578063729d8552146101265780637f6ae770146101445780638da5cb5b14610162578063c1da7e9b14610180578063f2fde38b1461019e576100a9565b80630dc0c971146100ae5780633d074aeb146100cc5780634e69d560146100ea5780635392d8071461010857806355df1ba414610112575b600080fd5b6100b66101ba565b6040516100c3919061054b565b60405180910390f35b6100d46101c4565b6040516100e1919061054b565b60405180910390f35b6100f26101ce565b6040516100ff9190610582565b60405180910390f35b61011061025b565b005b61011a61030d565b005b6101246103bf565b005b61012e610402565b60405161013b919061054b565b60405180910390f35b61014c61040c565b60405161015991906105de565b60405180910390f35b61016a610436565b60405161017791906105de565b60405180910390f35b61018861045f565b604051610195919061054b565b60405180910390f35b6101b860048036038101906101b3919061062a565b610469565b005b6000600254905090565b6000600454905090565b60008060038111156101e3576101e2610657565b5b600160149054906101000a900460ff16600381111561020557610204610657565b5b148015610213575060045442115b15610233576001600381111561022c5761022b610657565b5b9050610258565b600160149054906101000a900460ff16600381111561025557610254610657565b5b90505b90565b6000600381111561026f5761026e610657565b5b600160149054906101000a900460ff16600381111561029157610290610657565b5b146102d1576040517f08c379a00000000000000000000000000000000000000000000000000000000081526004016102c890610709565b60405180910390fd5b6102d96104ac565b6003600160146101000a81548160ff021916908360038111156102ff576102fe610657565b5b021790555042600381905550565b6000600381111561032157610320610657565b5b600160149054906101000a900460ff16600381111561034357610342610657565b5b14610383576040517f08c379a000000000000000000000000000000000000000000000000000000000815260040161037a90610709565b60405180910390fd5b61038b6104ac565b6002600160146101000a81548160ff021916908360038111156103b1576103b0610657565b5b021790555042600381905550565b6103c76104ac565b6040517f08c379a00000000000000000000000000000000000000000000000000000000081526004016103f99061079b565b60405180910390fd5b6000600554905090565b6000600160009054906101000a900473ffffffffffffffffffffffffffffffffffffffff16905090565b60008060009054906101000a900473ffffffffffffffffffffffffffffffffffffffff16905090565b6000600354905090565b6104716104ac565b6040517f08c379a00000000000000000000000000000000000000000000000000000000081526004016104a39061082d565b60405180910390fd5b6104b461052a565b73ffffffffffffffffffffffffffffffffffffffff166104d2610436565b73ffffffffffffffffffffffffffffffffffffffff1614610528576040517f08c379a000000000000000000000000000000000000000000000000000000000815260040161051f90610899565b60405180910390fd5b565b600033905090565b6000819050919050565b61054581610532565b82525050565b6000602082019050610560600083018461053c565b92915050565b600060ff82169050919050565b61057c81610566565b82525050565b60006020820190506105976000830184610573565b92915050565b600073ffffffffffffffffffffffffffffffffffffffff82169050919050565b60006105c88261059d565b9050919050565b6105d8816105bd565b82525050565b60006020820190506105f360008301846105cf565b92915050565b600080fd5b610607816105bd565b811461061257600080fd5b50565b600081359050610624816105fe565b92915050565b6000602082840312156106405761063f6105f9565b5b600061064e84828501610615565b91505092915050565b7f4e487b7100000000000000000000000000000000000000000000000000000000600052602160045260246000fd5b600082825260208201905092915050565b7f4875726242696b6552656e743a205468652072656e74206973206e6f7420696e60008201527f2070726f67726573732e00000000000000000000000000000000000000000000602082015250565b60006106f3602a83610686565b91506106fe82610697565b604082019050919050565b60006020820190508181036000830152610722816106e6565b9050919050565b7f4875726242696b6552656e743a2043616e6e6f742072656e6f756e6365206f7760008201527f6e6572736869702e000000000000000000000000000000000000000000000000602082015250565b6000610785602883610686565b915061079082610729565b604082019050919050565b600060208201905081810360008301526107b481610778565b9050919050565b7f4875726242696b6552656e743a2043616e6e6f74207472616e73666572206f7760008201527f6e6572736869702e000000000000000000000000000000000000000000000000602082015250565b6000610817602883610686565b9150610822826107bb565b604082019050919050565b600060208201905081810360008301526108468161080a565b9050919050565b7f4f776e61626c653a2063616c6c6572206973206e6f7420746865206f776e6572600082015250565b6000610883602083610686565b915061088e8261084d565b602082019050919050565b600060208201905081810360008301526108b281610876565b905091905056fea2646970667358221220eee13cade11df2610f2c285265f418079ee7ff4e9df1708745d507a12db9fd6a64736f6c63430008100033",
  "immutableReferences": {},
  "source": "//SPDX-License-Identifier: MIT\n\npragma solidity ^0.8.0;\n\nimport \"@openzeppelin/contracts/access/Ownable.sol\";\n\n/**\n * @title HurbBikeRent\n * @dev HurbBikeRent is a smart contract for handling bike rentals for Hurb.\n * Even though anyone can create an instance of it, only the ones owned by\n * the official HurbBikeShareManager contract should be considered valid.\n */\ncontract HurbBikeRent is Ownable {\n    enum Status{ IN_PROGRESS, DEFAULTED, LOSS_OF_RENT, COMPLETED }\n\n    address private renter;\n    Status private status;\n\n    uint private startingTime;\n    uint private endingTime;\n\n    // The ending time defined on the rent agreement, this is store to be able to measure rent defaults.\n    uint private agreementEndingTime;\n\n    // The amount of tokens paid for the rent.\n    uint private rentValue;\n\n    constructor(address _renter, uint _agreementEndingTime, uint _rentValue) {\n        renter = _renter;\n        status = Status.IN_PROGRESS;\n        startingTime = block.timestamp;\n        agreementEndingTime = _agreementEndingTime;\n        rentValue = _rentValue;\n    }\n\n    modifier inProgress() {\n        require(status == Status.IN_PROGRESS, \"HurbBikeRent: The rent is not in progress.\");\n        _;\n    }\n\n    function getRenter() public view returns(address) {\n        return renter;\n    }\n\n    function getStatus() public view returns(uint8) {\n        if (status == Status.IN_PROGRESS && block.timestamp > agreementEndingTime) {\n            return uint8(Status.DEFAULTED);\n        }\n\n        return uint8(status);\n    }\n\n    function getStartingTime() public view returns(uint) {\n        return startingTime;\n    }\n\n    function getEndingTime() public view returns(uint) {\n        return endingTime;\n    }\n\n    function getAgreementEndingTime() public view returns(uint) {\n        return agreementEndingTime;\n    }\n\n    function getRentValue() public view returns(uint) {\n        return rentValue;\n    }\n\n    function returnBikeRent() public inProgress onlyOwner {\n        status = Status.COMPLETED;\n        endingTime = block.timestamp;\n    }\n\n    function registerLossOfRent() public inProgress onlyOwner {\n        status = Status.LOSS_OF_RENT;\n        endingTime = block.timestamp;\n    }\n\n    function renounceOwnership() public view override onlyOwner {\n        revert(\"HurbBikeRent: Cannot renounce ownership.\");\n    }\n\n    function transferOwnership(address) public view override onlyOwner {\n        revert(\"HurbBikeRent: Cannot transfer ownership.\");\n    }\n}\n",
  "sourcePath": "/usr/hu/contracts/HurbBikeRent.sol",
  "compiler": {
    "name": "solc",
    "version": "0.8.16+commit.07a7930e.Emscripten.clang"
  },
  "schemaVersion": "3.4.9",
  "updatedAt": "2022-09-11T08:41:52.593Z",
  "networkType": "ethereum",
  "devdoc": {
    "details": "HurbBikeRent is a smart contract for handling bike rentals for Hurb. Even though anyone can create an instance of it, only the ones owned by the official HurbBikeShareManager contract should be considered valid.",
    "kind": "dev",
    "methods": {
      "owner()": {
        "details": "Returns the address of the current owner."
      },
      "renounceOwnership()": {
        "details": "Leaves the contract without owner. It will not be possible to call `onlyOwner` functions anymore. Can only be called by the current owner. NOTE: Renouncing ownership will leave the contract without an owner, thereby removing any functionality that is only available to the owner."
      }
    },
    "title": "HurbBikeRent",
    "version": 1
  },
  "userdoc": {
    "kind": "user",
    "methods": {},
    "version": 1
  }
}